{
  "abi": [
    {
      "inputs": [
        {
          "internalType": "address",
          "name": "pool",
          "type": "address"
        },
        {
          "internalType": "uint256",
          "name": "amount1Out",
          "type": "uint256"
        },
        {
          "internalType": "address",
          "name": "recipient",
          "type": "address"
        },
        {
          "internalType": "uint160",
          "name": "sqrtPriceLimitX96",
          "type": "uint160"
        }
      ],
      "name": "swap0ForExact1",
      "outputs": [],
      "stateMutability": "nonpayable",
      "type": "function"
    },
    {
      "inputs": [
        {
          "internalType": "address",
          "name": "pool",
          "type": "address"
        },
        {
          "internalType": "uint256",
          "name": "amount0Out",
          "type": "uint256"
        },
        {
          "internalType": "address",
          "name": "recipient",
          "type": "address"
        },
        {
          "internalType": "uint160",
          "name": "sqrtPriceLimitX96",
          "type": "uint160"
        }
      ],
      "name": "swap1ForExact0",
      "outputs": [],
      "stateMutability": "nonpayable",
      "type": "function"
    },
    {
      "inputs": [
        {
          "internalType": "address",
          "name": "pool",
          "type": "address"
        },
        {
          "internalType": "uint256",
          "name": "amount0In",
          "type": "uint256"
        },
        {
          "internalType": "address",
          "name": "recipient",
          "type": "address"
        },
        {
          "internalType": "uint160",
          "name": "sqrtPriceLimitX96",
          "type": "uint160"
        }
      ],
      "name": "swapExact0For1",
      "outputs": [],
      "stateMutability": "nonpayable",
      "type": "function"
    },
    {
      "inputs": [
        {
          "internalType": "address",
          "name": "pool",
          "type": "address"
        },
        {
          "internalType": "uint256",
          "name": "amount1In",
          "type": "uint256"
        },
        {
          "internalType": "address",
          "name": "recipient",
          "type": "address"
        },
        {
          "internalType": "uint160",
          "name": "sqrtPriceLimitX96",
          "type": "uint160"
        }
      ],
      "name": "swapExact1For0",
      "outputs": [],
      "stateMutability": "nonpayable",
      "type": "function"
    },
    {
      "inputs": [
        {
          "internalType": "int256",
          "name": "amount0Delta",
          "type": "int256"
        },
        {
          "internalType": "int256",
          "name": "amount1Delta",
          "type": "int256"
        },
        {
          "internalType": "bytes",
          "name": "data",
          "type": "bytes"
        }
      ],
      "name": "uniswapV3SwapCallback",
      "outputs": [],
      "stateMutability": "nonpayable",
      "type": "function"
    }
  ],
  "bytecode": {
    "object": "0x608060405234801561001057600080fd5b5061065d806100206000396000f3fe608060405234801561001057600080fd5b50600436106100575760003560e01c80636dfc0ddb1461005c578063bac7bf781461009a578063e2be9109146100d6578063f603482c14610112578063fa461e331461014e575b600080fd5b6100986004803603608081101561007257600080fd5b506001600160a01b038135811691602081013591604082013581169160600135166101ca565b005b610098600480360360808110156100b057600080fd5b506001600160a01b03813581169160208101359160408201358116916060013516610308565b610098600480360360808110156100ec57600080fd5b506001600160a01b038135811691602081013591604082013581169160600135166103c7565b6100986004803603608081101561012857600080fd5b506001600160a01b038135811691602081013591604082013581169160600135166103e2565b6100986004803603606081101561016457600080fd5b81359160208101359181019060608101604082013564010000000081111561018b57600080fd5b82018360208201111561019d57600080fd5b803590602001918460018302840111640100000000831117156101bf57600080fd5b5090925090506103fd565b836001600160a01b031663128acb088360016101e587610611565b853360405160200180826001600160a01b031681526020019150506040516020818303038152906040526040518663ffffffff1660e01b815260040180866001600160a01b031681526020018515158152602001848152602001836001600160a01b0316815260200180602001828103825283818151815260200191508051906020019080838360005b8381101561028757818101518382015260200161026f565b50505050905090810190601f1680156102b45780820380516001836020036101000a031916815260200191505b5096505050505050506040805180830381600087803b1580156102d657600080fd5b505af11580156102ea573d6000803e3d6000fd5b505050506040513d604081101561030057600080fd5b505050505050565b836001600160a01b031663128acb0883600161032387610611565b600003853360405160200180826001600160a01b031681526020019150506040516020818303038152906040526040518663ffffffff1660e01b815260040180866001600160a01b031681526020018515158152602001848152602001836001600160a01b0316815260200180602001828103825283818151815260200191508051906020019080838360008381101561028757818101518382015260200161026f565b836001600160a01b031663128acb088360006101e587610611565b836001600160a01b031663128acb0883600061032387610611565b60008282602081101561040f57600080fd5b50356001600160a01b03169050600085131561051557336001600160a01b0316630dfe16816040518163ffffffff1660e01b815260040160206040518083038186803b15801561045e57600080fd5b505afa158015610472573d6000803e3d6000fd5b505050506040513d602081101561048857600080fd5b5051604080516323b872dd60e01b81526001600160a01b03848116600483015233602483015260448201899052915191909216916323b872dd9160648083019260209291908290030181600087803b1580156104e357600080fd5b505af11580156104f7573d6000803e3d6000fd5b505050506040513d602081101561050d57600080fd5b5061060a9050565b6000841361051f57fe5b336001600160a01b031663d21220a76040518163ffffffff1660e01b815260040160206040518083038186803b15801561055857600080fd5b505afa15801561056c573d6000803e3d6000fd5b505050506040513d602081101561058257600080fd5b5051604080516323b872dd60e01b81526001600160a01b03848116600483015233602483015260448201889052915191909216916323b872dd9160648083019260209291908290030181600087803b1580156105dd57600080fd5b505af11580156105f1573d6000803e3d6000fd5b505050506040513d602081101561060757600080fd5b50505b5050505050565b6000600160ff1b821061062357600080fd5b509056fea264697066735822122053c9007cdb1968acf3a78bb85ea231bcaef72cb68191584580d6caff3fee7eb164736f6c63430007060033",
    "linkReferences": {}
  },
  "methodIdentifiers": {
    "swap0ForExact1(address,uint256,address,uint160)": "bac7bf78",
    "swap1ForExact0(address,uint256,address,uint160)": "f603482c",
    "swapExact0For1(address,uint256,address,uint160)": "6dfc0ddb",
    "swapExact1For0(address,uint256,address,uint160)": "e2be9109",
    "uniswapV3SwapCallback(int256,int256,bytes)": "fa461e33"
  },
  "id": 38
}