{
  "abi": [
    {
      "inputs": [
        {
          "internalType": "address",
          "name": "_factory",
          "type": "address"
        },
        {
          "internalType": "address",
          "name": "_factoryV2",
          "type": "address"
        },
        {
          "internalType": "address",
          "name": "_WETH9",
          "type": "address"
        }
      ],
      "stateMutability": "nonpayable",
      "type": "constructor"
    },
    {
      "inputs": [],
      "name": "WETH9",
      "outputs": [
        {
          "internalType": "address",
          "name": "",
          "type": "address"
        }
      ],
      "stateMutability": "view",
      "type": "function"
    },
    {
      "inputs": [],
      "name": "factory",
      "outputs": [
        {
          "internalType": "address",
          "name": "",
          "type": "address"
        }
      ],
      "stateMutability": "view",
      "type": "function"
    },
    {
      "inputs": [],
      "name": "factoryV2",
      "outputs": [
        {
          "internalType": "address",
          "name": "",
          "type": "address"
        }
      ],
      "stateMutability": "view",
      "type": "function"
    },
    {
      "inputs": [
        {
          "internalType": "bytes",
          "name": "path",
          "type": "bytes"
        },
        {
          "internalType": "uint256",
          "name": "amountIn",
          "type": "uint256"
        }
      ],
      "name": "quoteExactInput",
      "outputs": [
        {
          "internalType": "uint256",
          "name": "amountOut",
          "type": "uint256"
        },
        {
          "internalType": "uint160[]",
          "name": "v3SqrtPriceX96AfterList",
          "type": "uint160[]"
        },
        {
          "internalType": "uint32[]",
          "name": "v3InitializedTicksCrossedList",
          "type": "uint32[]"
        },
        {
          "internalType": "uint256",
          "name": "v3SwapGasEstimate",
          "type": "uint256"
        }
      ],
      "stateMutability": "nonpayable",
      "type": "function"
    },
    {
      "inputs": [
        {
          "components": [
            {
              "internalType": "address",
              "name": "tokenIn",
              "type": "address"
            },
            {
              "internalType": "address",
              "name": "tokenOut",
              "type": "address"
            },
            {
              "internalType": "uint256",
              "name": "amountIn",
              "type": "uint256"
            }
          ],
          "internalType": "struct IMixedRouteQuoterV1.QuoteExactInputSingleV2Params",
          "name": "params",
          "type": "tuple"
        }
      ],
      "name": "quoteExactInputSingleV2",
      "outputs": [
        {
          "internalType": "uint256",
          "name": "amountOut",
          "type": "uint256"
        }
      ],
      "stateMutability": "view",
      "type": "function"
    },
    {
      "inputs": [
        {
          "components": [
            {
              "internalType": "address",
              "name": "tokenIn",
              "type": "address"
            },
            {
              "internalType": "address",
              "name": "tokenOut",
              "type": "address"
            },
            {
              "internalType": "uint256",
              "name": "amountIn",
              "type": "uint256"
            },
            {
              "internalType": "uint24",
              "name": "fee",
              "type": "uint24"
            },
            {
              "internalType": "uint160",
              "name": "sqrtPriceLimitX96",
              "type": "uint160"
            }
          ],
          "internalType": "struct IMixedRouteQuoterV1.QuoteExactInputSingleV3Params",
          "name": "params",
          "type": "tuple"
        }
      ],
      "name": "quoteExactInputSingleV3",
      "outputs": [
        {
          "internalType": "uint256",
          "name": "amountOut",
          "type": "uint256"
        },
        {
          "internalType": "uint160",
          "name": "sqrtPriceX96After",
          "type": "uint160"
        },
        {
          "internalType": "uint32",
          "name": "initializedTicksCrossed",
          "type": "uint32"
        },
        {
          "internalType": "uint256",
          "name": "gasEstimate",
          "type": "uint256"
        }
      ],
      "stateMutability": "nonpayable",
      "type": "function"
    },
    {
      "inputs": [
        {
          "internalType": "int256",
          "name": "amount0Delta",
          "type": "int256"
        },
        {
          "internalType": "int256",
          "name": "amount1Delta",
          "type": "int256"
        },
        {
          "internalType": "bytes",
          "name": "path",
          "type": "bytes"
        }
      ],
      "name": "uniswapV3SwapCallback",
      "outputs": [],
      "stateMutability": "view",
      "type": "function"
    }
  ],
  "bytecode": {
    "object": "0x60e06040523480156200001157600080fd5b5060405162001cd738038062001cd7833981016040819052620000349162000078565b6001600160601b0319606093841b811660805290831b811660a052911b1660c052620000c1565b80516001600160a01b03811681146200007357600080fd5b919050565b6000806000606084860312156200008d578283fd5b62000098846200005b565b9250620000a8602085016200005b565b9150620000b8604085016200005b565b90509250925092565b60805160601c60a05160601c60c05160601c611bd1620001066000398061015152806106b552508061012d525080610328528061057252806106fb5250611bd16000f3fe608060405234801561001057600080fd5b506004361061007d5760003560e01c8063b174a0a71161005b578063b174a0a7146100c8578063c45a0155146100eb578063cdca1753146100f3578063fa461e33146101165761007d565b80634aa4a4fc1461008257806368e0d4e1146100a05780638a499286146100a8575b600080fd5b61008a61012b565b604051610097919061196c565b60405180910390f35b61008a61014f565b6100bb6100b6366004611745565b610173565b6040516100979190611a3f565b6100db6100d63660046117a9565b610192565b6040516100979493929190611ae3565b61008a610326565b610106610101366004611627565b61034a565b6040516100979493929190611a48565b61012961012436600461168d565b610541565b005b7f000000000000000000000000000000000000000000000000000000000000000081565b7f000000000000000000000000000000000000000000000000000000000000000081565b600061018c8260400151836000015184602001516106ab565b92915050565b6020810151815160608301516000928392839283926001600160a01b03808216908416109284926101c392906106f4565b905060005a9050816001600160a01b031663128acb0830856101e88c60400151610732565b60808d01516001600160a01b031615610205578c6080015161022b565b876102245773fffd8963efd1fc6a506488495d951d5263988d2561022b565b6401000276a45b8d600001518e606001518f6020015160405160200161024c93929190611936565b6040516020818303038152906040526040518663ffffffff1660e01b815260040161027b959493929190611980565b6040805180830381600087803b15801561029457600080fd5b505af19250505080156102c4575060408051601f3d908101601f191682019092526102c19181019061166a565b60015b610319573d8080156102f2576040519150601f19603f3d011682016040523d82523d6000602084013e6102f7565b606091505b505a82039450610308818487610748565b97509750975097505050505061031f565b50505050505b9193509193565b7f000000000000000000000000000000000000000000000000000000000000000081565b6000606080600061035a86610802565b67ffffffffffffffff8111801561037057600080fd5b5060405190808252806020026020018201604052801561039a578160200160208202803683370190505b5092506103a686610802565b67ffffffffffffffff811180156103bc57600080fd5b506040519080825280602002602001820160405280156103e6578160200160208202803683370190505b50915060005b60008060006103fa8a610813565b9194509250905062800000811615610448576104416040518060600160405280856001600160a01b03168152602001846001600160a01b031681526020018b815250610173565b9850610500565b60008060008061049e6040518060a00160405280896001600160a01b03168152602001886001600160a01b031681526020018f81526020018762ffffff16815260200160006001600160a01b0316815250610192565b9350935093509350828b89815181106104b357fe5b60200260200101906001600160a01b031690816001600160a01b031681525050818a89815181106104e057fe5b63ffffffff90921660209283029190910190910152929b50505094909401935b60019093019261050f8a610844565b156105245761051d8a61084c565b9950610530565b88975050505050610538565b5050506103ec565b92959194509250565b60008313806105505750600082135b61055957600080fd5b600080600061056784610813565b9250925092506105997f0000000000000000000000000000000000000000000000000000000000000000848484610863565b50600080600088136105c357846001600160a01b0316846001600160a01b031610886000036105dd565b836001600160a01b0316856001600160a01b031610876000035b9150915060006105ee8686866106f4565b9050600080826001600160a01b0316633850c7bd6040518163ffffffff1660e01b815260040160e06040518083038186803b15801561062c57600080fd5b505afa158015610640573d6000803e3d6000fd5b505050506040513d601f19601f820116820180604052508101906106649190611836565b505050505091509150841561068a57604051848152826020820152816040820152606081fd5b60405162461bcd60e51b81526004016106a290611a0a565b60405180910390fd5b60008060006106db7f00000000000000000000000000000000000000000000000000000000000000008686610882565b915091506106ea868383610950565b9695505050505050565b600061072a7f0000000000000000000000000000000000000000000000000000000000000000610725868686610a0c565b610a62565b949350505050565b6000600160ff1b821061074457600080fd5b5090565b600080600080600080876001600160a01b0316633850c7bd6040518163ffffffff1660e01b815260040160e06040518083038186803b15801561078a57600080fd5b505afa15801561079e573d6000803e3d6000fd5b505050506040513d601f19601f820116820180604052508101906107c29190611836565b509396506107d794508d9350610b4192505050565b919750955090506107f26001600160a01b0389168383610bc5565b9350869250505093509350935093565b80516017601319909101045b919050565b60008080610821848261114e565b925061082e8460146111fe565b905061083b84601761114e565b91509193909250565b516042111590565b805160609061018c908390601790601619016112a5565b600061087985610874868686610a0c565b6113f6565b95945050505050565b60008060006108918585611419565b5090506000806108a288888861147d565b6001600160a01b0316630902f1ac6040518163ffffffff1660e01b815260040160606040518083038186803b1580156108da57600080fd5b505afa1580156108ee573d6000803e3d6000fd5b505050506040513d606081101561090457600080fd5b5080516020909101516dffffffffffffffffffffffffffff91821693501690506001600160a01b038781169084161461093e578082610941565b81815b90999098509650505050505050565b60008084116109a6576040805162461bcd60e51b815260206004820152601960248201527f494e53554646494349454e545f494e5055545f414d4f554e5400000000000000604482015290519081900360640190fd5b6000831180156109b65750600082115b6109bf57600080fd5b60006109cd856103e5611538565b905060006109db8285611538565b905060006109f5836109ef886103e8611538565b9061155c565b9050808281610a0057fe5b04979650505050505050565b610a14611587565b826001600160a01b0316846001600160a01b03161115610a32579192915b50604080516060810182526001600160a01b03948516815292909316602083015262ffffff169181019190915290565b600081602001516001600160a01b031682600001516001600160a01b031610610a8a57600080fd5b50805160208083015160409384015184516001600160a01b0394851681850152939091168385015262ffffff166060808401919091528351808403820181526080840185528051908301206001600160f81b031960a085015294901b6001600160601b03191660a183015260b58201939093527fe34f199b19b2b4f47f68442619d555527d244f78a3297ea89325f843f87b8b5460d5808301919091528251808303909101815260f5909101909152805191012090565b60008060008351606014610ba457604484511015610b715760405162461bcd60e51b81526004016106a2906119e0565b60048401935083806020019051810190610b8b91906116db565b60405162461bcd60e51b81526004016106a291906119c6565b83806020019051810190610bb891906118cd565b9250925092509193909250565b60008060008060008060008060088b6001600160a01b031663d0c93a7c6040518163ffffffff1660e01b815260040160206040518083038186803b158015610c0c57600080fd5b505afa158015610c20573d6000803e3d6000fd5b505050506040513d6020811015610c3657600080fd5b5051600290810b908c900b81610c4857fe5b0560020b901d905060006101008c6001600160a01b031663d0c93a7c6040518163ffffffff1660e01b815260040160206040518083038186803b158015610c8e57600080fd5b505afa158015610ca2573d6000803e3d6000fd5b505050506040513d6020811015610cb857600080fd5b5051600290810b908d900b81610cca57fe5b0560020b81610cd557fe5b079050600060088d6001600160a01b031663d0c93a7c6040518163ffffffff1660e01b815260040160206040518083038186803b158015610d1557600080fd5b505afa158015610d29573d6000803e3d6000fd5b505050506040513d6020811015610d3f57600080fd5b5051600290810b908d900b81610d5157fe5b0560020b901d905060006101008e6001600160a01b031663d0c93a7c6040518163ffffffff1660e01b815260040160206040518083038186803b158015610d9757600080fd5b505afa158015610dab573d6000803e3d6000fd5b505050506040513d6020811015610dc157600080fd5b5051600290810b908e900b81610dd357fe5b0560020b81610dde57fe5b07905060008160ff166001901b8f6001600160a01b0316635339c296856040518263ffffffff1660e01b8152600401808260010b815260200191505060206040518083038186803b158015610e3257600080fd5b505afa158015610e46573d6000803e3d6000fd5b505050506040513d6020811015610e5c57600080fd5b505116118015610ee257508d6001600160a01b031663d0c93a7c6040518163ffffffff1660e01b815260040160206040518083038186803b158015610ea057600080fd5b505afa158015610eb4573d6000803e3d6000fd5b505050506040513d6020811015610eca57600080fd5b5051600290810b908d900b81610edc57fe5b0760020b155b8015610ef357508b60020b8d60020b135b945060008360ff166001901b8f6001600160a01b0316635339c296876040518263ffffffff1660e01b8152600401808260010b815260200191505060206040518083038186803b158015610f4657600080fd5b505afa158015610f5a573d6000803e3d6000fd5b505050506040513d6020811015610f7057600080fd5b505116118015610ff657508d6001600160a01b031663d0c93a7c6040518163ffffffff1660e01b815260040160206040518083038186803b158015610fb457600080fd5b505afa158015610fc8573d6000803e3d6000fd5b505050506040513d6020811015610fde57600080fd5b5051600290810b908e900b81610ff057fe5b0760020b155b801561100757508b60020b8d60020b125b95508160010b8460010b128061103357508160010b8460010b14801561103357508060ff168360ff1611155b1561104957839950829750819850809650611056565b8199508097508398508296505b505060001960ff87161b9150505b8560010b8760010b13611126578560010b8760010b141561108b5760001960ff858103161c165b6000818c6001600160a01b0316635339c2968a6040518263ffffffff1660e01b8152600401808260010b815260200191505060206040518083038186803b1580156110d557600080fd5b505afa1580156110e9573d6000803e3d6000fd5b505050506040513d60208110156110ff57600080fd5b505116905061110d8161156c565b61ffff1698909801975050600190950194600019611064565b8115611133576001880397505b8215611140576001880397505b505050505050509392505050565b60008182601401101561119d576040805162461bcd60e51b8152602060048201526012602482015271746f416464726573735f6f766572666c6f7760701b604482015290519081900360640190fd5b81601401835110156111ee576040805162461bcd60e51b8152602060048201526015602482015274746f416464726573735f6f75744f66426f756e647360581b604482015290519081900360640190fd5b500160200151600160601b900490565b60008182600301101561124c576040805162461bcd60e51b8152602060048201526011602482015270746f55696e7432345f6f766572666c6f7760781b604482015290519081900360640190fd5b816003018351101561129c576040805162461bcd60e51b8152602060048201526014602482015273746f55696e7432345f6f75744f66426f756e647360601b604482015290519081900360640190fd5b50016003015190565b60608182601f0110156112f0576040805162461bcd60e51b815260206004820152600e60248201526d736c6963655f6f766572666c6f7760901b604482015290519081900360640190fd5b828284011015611338576040805162461bcd60e51b815260206004820152600e60248201526d736c6963655f6f766572666c6f7760901b604482015290519081900360640190fd5b81830184511015611384576040805162461bcd60e51b8152602060048201526011602482015270736c6963655f6f75744f66426f756e647360781b604482015290519081900360640190fd5b6060821580156113a357604051915060008252602082016040526113ed565b6040519150601f8416801560200281840101858101878315602002848b0101015b818310156113dc5780518352602092830192016113c4565b5050858452601f01601f1916604052505b50949350505050565b60006114028383610a62565b9050336001600160a01b0382161461018c57600080fd5b600080826001600160a01b0316846001600160a01b0316141561143b57600080fd5b826001600160a01b0316846001600160a01b03161061145b57828461145e565b83835b90925090506001600160a01b03821661147657600080fd5b9250929050565b600080600061148c8585611419565b604080516001600160601b0319606094851b811660208084019190915293851b81166034830152825160288184030181526048830184528051908501206001600160f81b031960688401529a90941b9093166069840152607d8301989098527f96e8ac4277198ff8b6f785478aa9a39f403cb768dd02cbee326c3e7da348845f609d808401919091528851808403909101815260bd909201909752805196019590952095945050505050565b60008215806115535750508181028183828161155057fe5b04145b61018c57600080fd5b8082018281101561018c57600080fd5b6000805b821561018c57600019830190921691600101611570565b604080516060810182526000808252602082018190529181019190915290565b600082601f8301126115b7578081fd5b81356115ca6115c582611b31565b611b0d565b8181528460208386010111156115de578283fd5b816020850160208301379081016020019190915292915050565b8051600281900b811461080e57600080fd5b803561080e81611b83565b805161ffff8116811461080e57600080fd5b60008060408385031215611639578182fd5b823567ffffffffffffffff81111561164f578283fd5b61165b858286016115a7565b95602094909401359450505050565b6000806040838503121561167c578182fd5b505080516020909101519092909150565b6000806000606084860312156116a1578081fd5b8335925060208401359150604084013567ffffffffffffffff8111156116c5578182fd5b6116d1868287016115a7565b9150509250925092565b6000602082840312156116ec578081fd5b815167ffffffffffffffff811115611702578182fd5b8201601f81018413611712578182fd5b80516117206115c582611b31565b818152856020838501011115611734578384fd5b610879826020830160208601611b53565b600060608284031215611756578081fd5b6040516060810181811067ffffffffffffffff8211171561177357fe5b604052823561178181611b83565b8152602083013561179181611b83565b60208201526040928301359281019290925250919050565b600060a082840312156117ba578081fd5b60405160a0810181811067ffffffffffffffff821117156117d757fe5b60405282356117e581611b83565b815260208301356117f581611b83565b602082015260408381013590820152606083013562ffffff81168114611819578283fd5b606082015261182a6080840161160a565b60808201529392505050565b600080600080600080600060e0888a031215611850578283fd5b875161185b81611b83565b9650611869602089016115f8565b955061187760408901611615565b945061188560608901611615565b935061189360808901611615565b925060a088015160ff811681146118a8578283fd5b60c089015190925080151581146118bd578182fd5b8091505092959891949750929550565b6000806000606084860312156118e1578081fd5b8351925060208401516118f381611b83565b9150611901604085016115f8565b90509250925092565b60008151808452611922816020860160208601611b53565b601f01601f19169290920160200192915050565b606093841b6001600160601b0319908116825260e89390931b6001600160e81b0319166014820152921b166017820152602b0190565b6001600160a01b0391909116815260200190565b6001600160a01b0386811682528515156020830152604082018590528316606082015260a0608082018190526000906119bb9083018461190a565b979650505050505050565b6000602082526119d9602083018461190a565b9392505050565b60208082526010908201526f2ab732bc3832b1ba32b21032b93937b960811b604082015260600190565b6020808252818101527f4578616374206f75747075742071756f7465206e6f7420737570706f72746564604082015260600190565b90815260200190565b600060808201868352602060808185015281875180845260a0860191508289019350845b81811015611a915784516001600160a01b031683529383019391830191600101611a6c565b505084810360408601528651808252908201925081870190845b81811015611acd57825163ffffffff1685529383019391830191600101611aab565b5050505060609290920192909252949350505050565b9384526001600160a01b0392909216602084015263ffffffff166040830152606082015260800190565b60405181810167ffffffffffffffff81118282101715611b2957fe5b604052919050565b600067ffffffffffffffff821115611b4557fe5b50601f01601f191660200190565b60005b83811015611b6e578181015183820152602001611b56565b83811115611b7d576000848401525b50505050565b6001600160a01b0381168114611b9857600080fd5b5056fea26469706673582212209466420e62917fd83b21f69df4fc6ceac2b65499be5f96333413fca2e89dc2ae64736f6c63430007060033",
    "linkReferences": {}
  },
  "methodIdentifiers": {
    "WETH9()": "4aa4a4fc",
    "factory()": "c45a0155",
    "factoryV2()": "68e0d4e1",
    "quoteExactInput(bytes,uint256)": "cdca1753",
    "quoteExactInputSingleV2((address,address,uint256))": "8a499286",
    "quoteExactInputSingleV3((address,address,uint256,uint24,uint160))": "b174a0a7",
    "uniswapV3SwapCallback(int256,int256,bytes)": "fa461e33"
  },
  "id": 24
}