{
  "abi": [
    {
      "inputs": [
        {
          "internalType": "uint32[3]",
          "name": "blockTimestamps",
          "type": "uint32[3]"
        },
        {
          "internalType": "int24[3]",
          "name": "ticks",
          "type": "int24[3]"
        },
        {
          "internalType": "bool",
          "name": "mockLowObservationCardinality",
          "type": "bool"
        }
      ],
      "stateMutability": "nonpayable",
      "type": "constructor"
    },
    {
      "inputs": [
        {
          "internalType": "uint256",
          "name": "",
          "type": "uint256"
        }
      ],
      "name": "observations",
      "outputs": [
        {
          "internalType": "uint32",
          "name": "blockTimestamp",
          "type": "uint32"
        },
        {
          "internalType": "int56",
          "name": "tickCumulative",
          "type": "int56"
        },
        {
          "internalType": "uint160",
          "name": "secondsPerLiquidityCumulativeX128",
          "type": "uint160"
        },
        {
          "internalType": "bool",
          "name": "initialized",
          "type": "bool"
        }
      ],
      "stateMutability": "view",
      "type": "function"
    },
    {
      "inputs": [
        {
          "internalType": "uint32[]",
          "name": "secondsAgos",
          "type": "uint32[]"
        }
      ],
      "name": "observe",
      "outputs": [
        {
          "internalType": "int56[]",
          "name": "tickCumulatives",
          "type": "int56[]"
        },
        {
          "internalType": "uint160[]",
          "name": "secondsPerLiquidityCumulativeX128s",
          "type": "uint160[]"
        }
      ],
      "stateMutability": "view",
      "type": "function"
    },
    {
      "inputs": [],
      "name": "slot0",
      "outputs": [
        {
          "internalType": "uint160",
          "name": "",
          "type": "uint160"
        },
        {
          "internalType": "int24",
          "name": "",
          "type": "int24"
        },
        {
          "internalType": "uint16",
          "name": "",
          "type": "uint16"
        },
        {
          "internalType": "uint16",
          "name": "",
          "type": "uint16"
        },
        {
          "internalType": "uint16",
          "name": "",
          "type": "uint16"
        },
        {
          "internalType": "uint8",
          "name": "",
          "type": "uint8"
        },
        {
          "internalType": "bool",
          "name": "",
          "type": "bool"
        }
      ],
      "stateMutability": "view",
      "type": "function"
    }
  ],
  "bytecode": {
    "object": "0x608060405234801561001057600080fd5b50604051610e05380380610e05833981810160405260e081101561003357600080fd5b5060c0810151815160608301919063ffffffff161561007d576040805162461bcd60e51b81526020600482015260016024820152600360fc1b604482015290519081900360640190fd5b602083015163ffffffff166100bd576040805162461bcd60e51b81526020600482015260016024820152603160f81b604482015290519081900360640190fd5b6020830151604084015163ffffffff918216911611610107576040805162461bcd60e51b81526020600482015260016024820152601960f91b604482015290519081900360640190fd5b6000805b600381101561026157801561016f57600084600183036003811061012b57fe5b60200201519050600086600184036003811061014357fe5b602002015187846003811061015457fe5b60200201510390508063ffffffff168260020b028401935050505b604051806080016040528086836003811061018657fe5b602002015163ffffffff1681526020018360060b8152602001826001600160a01b031681526020016001151581525060018261ffff81106101c357fe5b825191018054602084015160408501516060909501511515600160f81b026001600160f81b036001600160a01b039096166b01000000000000000000000002600160581b600160f81b031960069390930b66ffffffffffffff166401000000000266ffffffffffffff60201b1963ffffffff90971663ffffffff1990951694909417959095169290921716929092179290921617905560010161010b565b5060408301516000805460029290920b62ffffff1662ffffff1990921691909117905581610290576003610293565b60015b6000805464ffff000000191660ff929092166301000000029190911761ffff60281b191665020000000000178155610b2f94508493506102d692509050396000f3fe608060405234801561001057600080fd5b50600436106100415760003560e01c8063252c09d7146100465780633850c7bd1461009d578063883bdbfd146100f6575b600080fd5b6100636004803603602081101561005c57600080fd5b50356101fd565b6040805163ffffffff909516855260069390930b60208501526001600160a01b039091168383015215156060830152519081900360800190f35b6100a5610242565b604080516001600160a01b03909816885260029690960b602088015261ffff9485168787015292841660608701529216608085015260ff90911660a0840152151560c0830152519081900360e00190f35b6101646004803603602081101561010c57600080fd5b810190602081018135600160201b81111561012657600080fd5b82018360208201111561013857600080fd5b803590602001918460208302840111600160201b8311171561015957600080fd5b50909250905061026e565b604051808060200180602001838103835285818151815260200191508051906020019060200280838360005b838110156101a8578181015183820152602001610190565b50505050905001838103825284818151815260200191508051906020019060200280838360005b838110156101e75781810151838201526020016101cf565b5050505090500194505050505060405180910390f35b60018161ffff811061020e57600080fd5b015463ffffffff81169150600160201b810460060b90600160581b81046001600160a01b031690600160f81b900460ff1684565b60008054600281900b9061ffff6501000000000082048116916301000000900416838080919293949596565b6060806102dd600160020154604080516020808802828101820190935287825263ffffffff90931692909188918891829185019084908082843760009201829052508054600196959450600281900b935061ffff650100000000008204811693506301000000909104166102e8565b915091509250929050565b60608060008361ffff1611610328576040805162461bcd60e51b81526020600482015260016024820152604960f81b604482015290519081900360640190fd5b865167ffffffffffffffff8111801561034057600080fd5b5060405190808252806020026020018201604052801561036a578160200160208202803683370190505b509150865167ffffffffffffffff8111801561038557600080fd5b506040519080825280602002602001820160405280156103af578160200160208202803683370190505b50905060005b8751811015610435576103e08a8a8a84815181106103cf57fe5b60200260200101518a8a8a8a610442565b8483815181106103ec57fe5b602002602001018484815181106103ff57fe5b60200260200101826001600160a01b03166001600160a01b03168152508260060b60060b815250505080806001019150506103b5565b5097509795505050505050565b60008063ffffffff87166104e8576000898661ffff1661ffff811061046357fe5b60408051608081018252919092015463ffffffff808216808452600160201b8304600690810b810b900b6020850152600160581b83046001600160a01b031694840194909452600160f81b90910460ff16151560608301529092508a16146104d4576104d1818a89886105d4565b90505b8060200151816040015192509250506105c8565b8688036000806104fd8c8c858c8c8c8c610677565b91509150816000015163ffffffff168363ffffffff16141561052f5781602001518260400151945094505050506105c8565b805163ffffffff848116911614156105575780602001518160400151945094505050506105c8565b8151815160208085015190840151918390039286039163ffffffff80841692908516910360060b8161058557fe5b05028460200151018263ffffffff168263ffffffff1686604001518660400151036001600160a01b031602816105b757fe5b048560400151019650965050505050505b97509795505050505050565b6105dc610ad2565b600085600001518503905060405180608001604052808663ffffffff1681526020018263ffffffff168660020b0288602001510160060b81526020016000856001600160801b031611610630576001610632565b845b6001600160801b031663ffffffff60801b608085901b168161065057fe5b048860400151016001600160a01b0316815260200160011515815250915050949350505050565b61067f610ad2565b610687610ad2565b888561ffff1661ffff811061069857fe5b60408051608081018252919092015463ffffffff8116808352600160201b8204600690810b810b900b6020840152600160581b82046001600160a01b031693830193909352600160f81b900460ff161515606082015292506106fc90899089610871565b15610734578663ffffffff16826000015163ffffffff16141561071e576105c8565b8161072b838989886105d4565b915091506105c8565b888361ffff168660010161ffff168161074957fe5b0661ffff1661ffff811061075957fe5b60408051608081018252929091015463ffffffff81168352600160201b8104600690810b810b900b60208401526001600160a01b03600160581b8204169183019190915260ff600160f81b9091041615156060820181905290925061080e57604080516080810182528a5463ffffffff81168252600160201b8104600690810b810b900b6020830152600160581b81046001600160a01b031692820192909252600160f81b90910460ff161515606082015291505b61081d88836000015189610871565b610854576040805162461bcd60e51b815260206004820152600360248201526213d31160ea1b604482015290519081900360640190fd5b6108618989898887610934565b9150915097509795505050505050565b60008363ffffffff168363ffffffff161115801561089b57508363ffffffff168263ffffffff1611155b156108b7578163ffffffff168363ffffffff161115905061092d565b60008463ffffffff168463ffffffff16116108de578363ffffffff16600160201b016108e6565b8363ffffffff165b64ffffffffff16905060008563ffffffff168463ffffffff1611610916578363ffffffff16600160201b0161091e565b8363ffffffff165b64ffffffffff16909111159150505b9392505050565b61093c610ad2565b610944610ad2565b60008361ffff168560010161ffff168161095a57fe5b0661ffff169050600060018561ffff16830103905060005b506002818301048961ffff8716828161098757fe5b0661ffff811061099357fe5b60408051608081018252929091015463ffffffff81168352600160201b8104600690810b810b900b60208401526001600160a01b03600160581b8204169183019190915260ff600160f81b909104161515606082018190529095506109fd57806001019250610972565b898661ffff168260010181610a0e57fe5b0661ffff8110610a1a57fe5b60408051608081018252929091015463ffffffff81168352600160201b8104600690810b810b900b60208401526001600160a01b03600160581b8204169183019190915260ff600160f81b90910416151560608201528551909450600090610a84908b908b610871565b9050808015610a9d5750610a9d8a8a8760000151610871565b15610aa85750610ac5565b80610ab857600182039250610abf565b8160010193505b50610972565b5050509550959350505050565b6040805160808101825260008082526020820181905291810182905260608101919091529056fea26469706673582212209817e130effb35be17189cdfa9f1fa783f6699ed0226abf8a72fd5e2977efe4d64736f6c63430007060033",
    "linkReferences": {}
  },
  "methodIdentifiers": {
    "observations(uint256)": "252c09d7",
    "observe(uint32[])": "883bdbfd",
    "slot0()": "3850c7bd"
  },
  "id": 32
}