{
  "abi": [
    {
      "inputs": [
        {
          "internalType": "address",
          "name": "_factoryV2",
          "type": "address"
        },
        {
          "internalType": "address",
          "name": "_positionManager",
          "type": "address"
        }
      ],
      "stateMutability": "nonpayable",
      "type": "constructor"
    },
    {
      "inputs": [],
      "name": "factoryV2",
      "outputs": [
        {
          "internalType": "address",
          "name": "",
          "type": "address"
        }
      ],
      "stateMutability": "view",
      "type": "function"
    },
    {
      "inputs": [],
      "name": "positionManager",
      "outputs": [
        {
          "internalType": "address",
          "name": "",
          "type": "address"
        }
      ],
      "stateMutability": "view",
      "type": "function"
    }
  ],
  "bytecode": {
    "object": "0x60c060405234801561001057600080fd5b506040516101573803806101578339818101604052604081101561003357600080fd5b5080516020909101516001600160601b0319606092831b8116608052911b1660a05260805160601c60a05160601c60dd61007a6000398060855250806061525060dd6000f3fe6080604052348015600f57600080fd5b506004361060325760003560e01c806368e0d4e1146037578063791b98bc146059575b600080fd5b603d605f565b604080516001600160a01b039092168252519081900360200190f35b603d6083565b7f000000000000000000000000000000000000000000000000000000000000000081565b7f00000000000000000000000000000000000000000000000000000000000000008156fea26469706673582212200f6eff9f691cc862ff20c71bc6b12851ea98ac4a2571859e0b6ccb278fc7b7ac64736f6c63430007060033",
    "linkReferences": {}
  },
  "methodIdentifiers": {
    "factoryV2()": "68e0d4e1",
    "positionManager()": "791b98bc"
  },
  "id": 31
}