{
  "abi": [
    {
      "inputs": [
        {
          "internalType": "address",
          "name": "_factory",
          "type": "address"
        },
        {
          "internalType": "address",
          "name": "_WETH9",
          "type": "address"
        }
      ],
      "stateMutability": "nonpayable",
      "type": "constructor"
    },
    {
      "inputs": [],
      "name": "WETH9",
      "outputs": [
        {
          "internalType": "address",
          "name": "",
          "type": "address"
        }
      ],
      "stateMutability": "view",
      "type": "function"
    },
    {
      "inputs": [
        {
          "internalType": "bytes[]",
          "name": "paths",
          "type": "bytes[]"
        },
        {
          "internalType": "uint128[]",
          "name": "amounts",
          "type": "uint128[]"
        },
        {
          "internalType": "uint24",
          "name": "maximumTickDivergence",
          "type": "uint24"
        },
        {
          "internalType": "uint32",
          "name": "secondsAgo",
          "type": "uint32"
        }
      ],
      "name": "checkOracleSlippage",
      "outputs": [],
      "stateMutability": "view",
      "type": "function"
    },
    {
      "inputs": [
        {
          "internalType": "bytes",
          "name": "path",
          "type": "bytes"
        },
        {
          "internalType": "uint24",
          "name": "maximumTickDivergence",
          "type": "uint24"
        },
        {
          "internalType": "uint32",
          "name": "secondsAgo",
          "type": "uint32"
        }
      ],
      "name": "checkOracleSlippage",
      "outputs": [],
      "stateMutability": "view",
      "type": "function"
    },
    {
      "inputs": [],
      "name": "factory",
      "outputs": [
        {
          "internalType": "address",
          "name": "",
          "type": "address"
        }
      ],
      "stateMutability": "view",
      "type": "function"
    },
    {
      "inputs": [
        {
          "internalType": "contract IUniswapV3Pool",
          "name": "pool",
          "type": "address"
        },
        {
          "internalType": "address",
          "name": "tokenIn",
          "type": "address"
        },
        {
          "internalType": "address",
          "name": "tokenOut",
          "type": "address"
        },
        {
          "internalType": "uint24",
          "name": "fee",
          "type": "uint24"
        }
      ],
      "name": "registerPool",
      "outputs": [],
      "stateMutability": "nonpayable",
      "type": "function"
    },
    {
      "inputs": [
        {
          "internalType": "uint256",
          "name": "_time",
          "type": "uint256"
        }
      ],
      "name": "setTime",
      "outputs": [],
      "stateMutability": "nonpayable",
      "type": "function"
    },
    {
      "inputs": [
        {
          "internalType": "contract IUniswapV3Pool",
          "name": "pool",
          "type": "address"
        }
      ],
      "name": "testGetBlockStartingAndCurrentTick",
      "outputs": [
        {
          "internalType": "int24",
          "name": "blockStartingTick",
          "type": "int24"
        },
        {
          "internalType": "int24",
          "name": "currentTick",
          "type": "int24"
        }
      ],
      "stateMutability": "view",
      "type": "function"
    },
    {
      "inputs": [
        {
          "internalType": "bytes[]",
          "name": "paths",
          "type": "bytes[]"
        },
        {
          "internalType": "uint128[]",
          "name": "amounts",
          "type": "uint128[]"
        },
        {
          "internalType": "uint32",
          "name": "secondsAgo",
          "type": "uint32"
        }
      ],
      "name": "testGetSyntheticTicks",
      "outputs": [
        {
          "internalType": "int256",
          "name": "averageSyntheticAverageTick",
          "type": "int256"
        },
        {
          "internalType": "int256",
          "name": "averageSyntheticCurrentTick",
          "type": "int256"
        }
      ],
      "stateMutability": "view",
      "type": "function"
    },
    {
      "inputs": [
        {
          "internalType": "bytes",
          "name": "path",
          "type": "bytes"
        },
        {
          "internalType": "uint32",
          "name": "secondsAgo",
          "type": "uint32"
        }
      ],
      "name": "testGetSyntheticTicks",
      "outputs": [
        {
          "internalType": "int256",
          "name": "syntheticAverageTick",
          "type": "int256"
        },
        {
          "internalType": "int256",
          "name": "syntheticCurrentTick",
          "type": "int256"
        }
      ],
      "stateMutability": "view",
      "type": "function"
    }
  ],
  "bytecode": {
    "object": "0x60c060405234801561001057600080fd5b506040516200172e3803806200172e8339810160408190526100319161006b565b6001600160601b0319606092831b8116608052911b1660a05261009d565b80516001600160a01b038116811461006657600080fd5b919050565b6000806040838503121561007d578182fd5b6100868361004f565b91506100946020840161004f565b90509250929050565b60805160601c60a05160601c611667620000c7600039806101f452508061022d52506116676000f3fe608060405234801561001057600080fd5b50600436106100935760003560e01c8063ac810c6c11610066578063ac810c6c146100ff578063c45a015514610120578063eaea4bfc14610128578063efdeed8e1461013b578063f25801a71461014e57610093565b80630f64f6a9146100985780631d31557e146100ad5780633beb26c4146100d75780634aa4a4fc146100ea575b600080fd5b6100ab6100a63660046113c3565b610161565b005b6100c06100bb366004611286565b6101d3565b6040516100ce929190611549565b60405180910390f35b6100ab6100e53660046114b3565b6101ed565b6100f26101f2565b6040516100ce9190611521565b61011261010d3660046113a0565b610216565b6040516100ce929190611535565b6100f261022b565b6100c0610136366004611350565b61024f565b6100ab610149366004611202565b610267565b6100ab61015c3660046112fb565b6102b0565b6001600160a01b0392831660008181526020818152604080832095871680845295825280832062ffffff9095168084529482528083208054979098166001600160a01b031997881681179098559482528181528482209282529182528381209281529190522080549091169091179055565b6000806101e18585856102ee565b91509150935093915050565b600155565b7f000000000000000000000000000000000000000000000000000000000000000081565b600080610222836104e6565b91509150915091565b7f000000000000000000000000000000000000000000000000000000000000000081565b60008061025c8484610723565b915091509250929050565b6000806102758686856102ee565b915091508362ffffff16818303126102a85760405162461bcd60e51b815260040161029f90611591565b60405180910390fd5b505050505050565b6000806102bd8584610723565b915091508362ffffff16818303126102e75760405162461bcd60e51b815260040161029f90611591565b5050505050565b60008083518551146102ff57600080fd5b6000855167ffffffffffffffff8111801561031957600080fd5b5060405190808252806020026020018201604052801561035357816020015b61034061107c565b8152602001906001900390816103385790505b5090506000865167ffffffffffffffff8111801561037057600080fd5b506040519080825280602002602001820160405280156103aa57816020015b61039761107c565b81526020019060019003908161038f5790505b50905060005b87518110156104bf576000806103d98a84815181106103cb57fe5b602002602001015189610723565b915091506103e6826108fa565b8584815181106103f257fe5b60200260200101516000019060020b908160020b81525050610413816108fa565b84848151811061041f57fe5b60200260200101516000019060020b908160020b8152505088838151811061044357fe5b602002602001015185848151811061045757fe5b6020026020010151602001906001600160801b031690816001600160801b03168152505088838151811061048757fe5b602002602001015184848151811061049b57fe5b6020908102919091018101516001600160801b0390921691015250506001016103b0565b506104c982610910565b60020b93506104d781610910565b60020b92505050935093915050565b600080600080846001600160a01b0316633850c7bd6040518163ffffffff1660e01b815260040160e06040518083038186803b15801561052557600080fd5b505afa158015610539573d6000803e3d6000fd5b505050506040513d601f19601f8201168201806040525081019061055d919061141c565b50939750919550935050600161ffff841611915061058f90505760405162461bcd60e51b815260040161029f90611574565b600080866001600160a01b031663252c09d7856040518263ffffffff1660e01b81526004016105be91906115ad565b60806040518083038186803b1580156105d657600080fd5b505afa1580156105ea573d6000803e3d6000fd5b505050506040513d601f19601f8201168201806040525081019061060e91906114cb565b50509150915061061c6109cc565b63ffffffff168263ffffffff16146106365784955061071a565b60008361ffff1660018561ffff168761ffff1601038161065257fe5b06905060008060008a6001600160a01b031663252c09d7856040518263ffffffff1660e01b815260040161068691906115bc565b60806040518083038186803b15801561069e57600080fd5b505afa1580156106b2573d6000803e3d6000fd5b505050506040513d601f19601f820116820180604052508101906106d691906114cb565b93505092509250806106fa5760405162461bcd60e51b815260040161029f90611557565b82860363ffffffff811683870360060b8161071157fe5b059a5050505050505b50505050915091565b600080600080610732866109d2565b90506000805b828110156108db57600080600061074e8b6109df565b9250925092506000610761848484610a10565b905060008063ffffffff8d1661078a5761077a836104e6565b600291820b9350900b905061081f565b610794838e610a48565b8160020b91505080925050826001600160a01b0316633850c7bd6040518163ffffffff1660e01b815260040160e06040518083038186803b1580156107d857600080fd5b505afa1580156107ec573d6000803e3d6000fd5b505050506040513d601f19601f82011682018060405250810190610810919061141c565b50505060029290920b93505050505b6001890387141561084657846001600160a01b0316866001600160a01b0316109950610855565b61084f8e610db7565b9d508597505b60008715806108a85750866001600160a01b0316896001600160a01b03161061089257866001600160a01b0316866001600160a01b0316106108a8565b856001600160a01b0316876001600160a01b0316105b905080156108bd579b82019b9a81019a6108c8565b828d039c50818c039b505b5050600190950194506107389350505050565b50826108f05760001985029450600019840293505b5050509250929050565b80600281900b811461090b57600080fd5b919050565b6000806000805b84518110156109935784818151811061092c57fe5b6020026020010151602001516001600160801b031685828151811061094d57fe5b60200260200101516000015160020b028301925084818151811061096d57fe5b6020026020010151602001516001600160801b0316820191508080600101915050610917565b5080828161099d57fe5b0592506000821280156109b857508082816109b457fe5b0715155b156109c557600019909201915b5050919050565b60015490565b5160176013199091010490565b600080806109ed8482610dd4565b92506109fa846014610e84565b9050610a07846017610dd4565b91509193909250565b6001600160a01b03928316600090815260208181526040808320948616835293815283822062ffffff90931682529190915220541690565b60008063ffffffff8316610a88576040805162461bcd60e51b8152602060048201526002602482015261042560f41b604482015290519081900360640190fd5b6040805160028082526060820183526000926020830190803683370190505090508381600081518110610ab757fe5b602002602001019063ffffffff16908163ffffffff1681525050600081600181518110610ae057fe5b63ffffffff90921660209283029190910182015260405163883bdbfd60e01b81526004810182815283516024830152835160009384936001600160a01b038b169363883bdbfd9388939192839260449091019185820191028083838b5b83811015610b55578181015183820152602001610b3d565b505050509050019250505060006040518083038186803b158015610b7857600080fd5b505afa158015610b8c573d6000803e3d6000fd5b505050506040513d6000823e601f3d908101601f191682016040908152811015610bb557600080fd5b8101908080516040519392919084640100000000821115610bd557600080fd5b908301906020820185811115610bea57600080fd5b8251866020820283011164010000000082111715610c0757600080fd5b82525081516020918201928201910280838360005b83811015610c34578181015183820152602001610c1c565b5050505090500160405260200180516040519392919084640100000000821115610c5d57600080fd5b908301906020820185811115610c7257600080fd5b8251866020820283011164010000000082111715610c8f57600080fd5b82525081516020918201928201910280838360005b83811015610cbc578181015183820152602001610ca4565b5050505090500160405250505091509150600082600081518110610cdc57fe5b602002602001015183600181518110610cf157fe5b6020026020010151039050600082600081518110610d0b57fe5b602002602001015183600181518110610d2057fe5b60200260200101510390508763ffffffff168260060b81610d3d57fe5b05965060008260060b128015610d6757508763ffffffff168260060b81610d6057fe5b0760060b15155b15610d7457600019909601955b63ffffffff88166001600160a01b0302640100000000600160c01b03602083901b166001600160c01b03821681610da757fe5b0496505050505050509250929050565b8051606090610dce90839060179060161901610f2b565b92915050565b600081826014011015610e23576040805162461bcd60e51b8152602060048201526012602482015271746f416464726573735f6f766572666c6f7760701b604482015290519081900360640190fd5b8160140183511015610e74576040805162461bcd60e51b8152602060048201526015602482015274746f416464726573735f6f75744f66426f756e647360581b604482015290519081900360640190fd5b500160200151600160601b900490565b600081826003011015610ed2576040805162461bcd60e51b8152602060048201526011602482015270746f55696e7432345f6f766572666c6f7760781b604482015290519081900360640190fd5b8160030183511015610f22576040805162461bcd60e51b8152602060048201526014602482015273746f55696e7432345f6f75744f66426f756e647360601b604482015290519081900360640190fd5b50016003015190565b60608182601f011015610f76576040805162461bcd60e51b815260206004820152600e60248201526d736c6963655f6f766572666c6f7760901b604482015290519081900360640190fd5b828284011015610fbe576040805162461bcd60e51b815260206004820152600e60248201526d736c6963655f6f766572666c6f7760901b604482015290519081900360640190fd5b8183018451101561100a576040805162461bcd60e51b8152602060048201526011602482015270736c6963655f6f75744f66426f756e647360781b604482015290519081900360640190fd5b6060821580156110295760405191506000825260208201604052611073565b6040519150601f8416801560200281840101858101878315602002848b0101015b8183101561106257805183526020928301920161104a565b5050858452601f01601f1916604052505b50949350505050565b604080518082019091526000808252602082015290565b600082601f8301126110a3578081fd5b813560206110b86110b3836115e9565b6115c5565b82815281810190858301855b858110156110ed576110db898684358b0101611178565b845292840192908401906001016110c4565b5090979650505050505050565b600082601f83011261110a578081fd5b8135602061111a6110b3836115e9565b8281528181019085830183850287018401881015611136578586fd5b855b858110156110ed5781356001600160801b0381168114611156578788fd5b84529284019290840190600101611138565b8051801515811461090b57600080fd5b600082601f830112611188578081fd5b813567ffffffffffffffff81111561119c57fe5b6111af601f8201601f19166020016115c5565b8181528460208386010111156111c3578283fd5b816020850160208301379081016020019190915292915050565b805161ffff8116811461090b57600080fd5b803562ffffff8116811461090b57600080fd5b60008060008060808587031215611217578384fd5b843567ffffffffffffffff8082111561122e578586fd5b61123a88838901611093565b9550602087013591508082111561124f578485fd5b5061125c878288016110fa565b93505061126b604086016111ef565b9150606085013561127b8161161f565b939692955090935050565b60008060006060848603121561129a578283fd5b833567ffffffffffffffff808211156112b1578485fd5b6112bd87838801611093565b945060208601359150808211156112d2578384fd5b506112df868287016110fa565b92505060408401356112f08161161f565b809150509250925092565b60008060006060848603121561130f578283fd5b833567ffffffffffffffff811115611325578384fd5b61133186828701611178565b935050611340602085016111ef565b915060408401356112f08161161f565b60008060408385031215611362578182fd5b823567ffffffffffffffff811115611378578283fd5b61138485828601611178565b92505060208301356113958161161f565b809150509250929050565b6000602082840312156113b1578081fd5b81356113bc81611607565b9392505050565b600080600080608085870312156113d8578384fd5b84356113e381611607565b935060208501356113f381611607565b9250604085013561140381611607565b9150611411606086016111ef565b905092959194509250565b600080600080600080600060e0888a031215611436578485fd5b875161144181611607565b8097505060208801518060020b8114611458578586fd5b9550611466604089016111dd565b9450611474606089016111dd565b9350611482608089016111dd565b925060a088015160ff81168114611497578283fd5b91506114a560c08901611168565b905092959891949750929550565b6000602082840312156114c4578081fd5b5035919050565b600080600080608085870312156114e0578182fd5b84516114eb8161161f565b8094505060208501518060060b8114611502578283fd5b604086015190935061151381611607565b915061141160608601611168565b6001600160a01b0391909116815260200190565b600292830b8152910b602082015260400190565b918252602082015260400190565b6020808252600390820152624f4e4960e81b604082015260600190565b6020808252600390820152624e454f60e81b604082015260600190565b602080825260029082015261151160f21b604082015260600190565b61ffff91909116815260200190565b90815260200190565b60405181810167ffffffffffffffff811182821017156115e157fe5b604052919050565b600067ffffffffffffffff8211156115fd57fe5b5060209081020190565b6001600160a01b038116811461161c57600080fd5b50565b63ffffffff8116811461161c57600080fdfea2646970667358221220b41ac66c37886809af9512a3868be3b36836d511d6435b4cac268d1fc10e552864736f6c63430007060033",
    "linkReferences": {}
  },
  "methodIdentifiers": {
    "WETH9()": "4aa4a4fc",
    "checkOracleSlippage(bytes,uint24,uint32)": "f25801a7",
    "checkOracleSlippage(bytes[],uint128[],uint24,uint32)": "efdeed8e",
    "factory()": "c45a0155",
    "registerPool(address,address,address,uint24)": "0f64f6a9",
    "setTime(uint256)": "3beb26c4",
    "testGetBlockStartingAndCurrentTick(address)": "ac810c6c",
    "testGetSyntheticTicks(bytes,uint32)": "eaea4bfc",
    "testGetSyntheticTicks(bytes[],uint128[],uint32)": "1d31557e"
  },
  "id": 34
}