{
  "abi": [
    {
      "inputs": [
        {
          "internalType": "address",
          "name": "_factoryV2",
          "type": "address"
        },
        {
          "internalType": "address",
          "name": "factoryV3",
          "type": "address"
        },
        {
          "internalType": "address",
          "name": "_positionManager",
          "type": "address"
        },
        {
          "internalType": "address",
          "name": "_WETH9",
          "type": "address"
        }
      ],
      "stateMutability": "nonpayable",
      "type": "constructor"
    },
    {
      "inputs": [],
      "name": "WETH9",
      "outputs": [
        {
          "internalType": "address",
          "name": "",
          "type": "address"
        }
      ],
      "stateMutability": "view",
      "type": "function"
    },
    {
      "inputs": [
        {
          "internalType": "address",
          "name": "token",
          "type": "address"
        }
      ],
      "name": "approveMax",
      "outputs": [],
      "stateMutability": "payable",
      "type": "function"
    },
    {
      "inputs": [
        {
          "internalType": "address",
          "name": "token",
          "type": "address"
        }
      ],
      "name": "approveMaxMinusOne",
      "outputs": [],
      "stateMutability": "payable",
      "type": "function"
    },
    {
      "inputs": [
        {
          "internalType": "address",
          "name": "token",
          "type": "address"
        }
      ],
      "name": "approveZeroThenMax",
      "outputs": [],
      "stateMutability": "payable",
      "type": "function"
    },
    {
      "inputs": [
        {
          "internalType": "address",
          "name": "token",
          "type": "address"
        }
      ],
      "name": "approveZeroThenMaxMinusOne",
      "outputs": [],
      "stateMutability": "payable",
      "type": "function"
    },
    {
      "inputs": [
        {
          "internalType": "bytes",
          "name": "data",
          "type": "bytes"
        }
      ],
      "name": "callPositionManager",
      "outputs": [
        {
          "internalType": "bytes",
          "name": "result",
          "type": "bytes"
        }
      ],
      "stateMutability": "payable",
      "type": "function"
    },
    {
      "inputs": [
        {
          "internalType": "bytes[]",
          "name": "paths",
          "type": "bytes[]"
        },
        {
          "internalType": "uint128[]",
          "name": "amounts",
          "type": "uint128[]"
        },
        {
          "internalType": "uint24",
          "name": "maximumTickDivergence",
          "type": "uint24"
        },
        {
          "internalType": "uint32",
          "name": "secondsAgo",
          "type": "uint32"
        }
      ],
      "name": "checkOracleSlippage",
      "outputs": [],
      "stateMutability": "view",
      "type": "function"
    },
    {
      "inputs": [
        {
          "internalType": "bytes",
          "name": "path",
          "type": "bytes"
        },
        {
          "internalType": "uint24",
          "name": "maximumTickDivergence",
          "type": "uint24"
        },
        {
          "internalType": "uint32",
          "name": "secondsAgo",
          "type": "uint32"
        }
      ],
      "name": "checkOracleSlippage",
      "outputs": [],
      "stateMutability": "view",
      "type": "function"
    },
    {
      "inputs": [
        {
          "components": [
            {
              "internalType": "bytes",
              "name": "path",
              "type": "bytes"
            },
            {
              "internalType": "address",
              "name": "recipient",
              "type": "address"
            },
            {
              "internalType": "uint256",
              "name": "amountIn",
              "type": "uint256"
            },
            {
              "internalType": "uint256",
              "name": "amountOutMinimum",
              "type": "uint256"
            }
          ],
          "internalType": "struct IV3SwapRouter.ExactInputParams",
          "name": "params",
          "type": "tuple"
        }
      ],
      "name": "exactInput",
      "outputs": [
        {
          "internalType": "uint256",
          "name": "amountOut",
          "type": "uint256"
        }
      ],
      "stateMutability": "payable",
      "type": "function"
    },
    {
      "inputs": [
        {
          "components": [
            {
              "internalType": "address",
              "name": "tokenIn",
              "type": "address"
            },
            {
              "internalType": "address",
              "name": "tokenOut",
              "type": "address"
            },
            {
              "internalType": "uint24",
              "name": "fee",
              "type": "uint24"
            },
            {
              "internalType": "address",
              "name": "recipient",
              "type": "address"
            },
            {
              "internalType": "uint256",
              "name": "amountIn",
              "type": "uint256"
            },
            {
              "internalType": "uint256",
              "name": "amountOutMinimum",
              "type": "uint256"
            },
            {
              "internalType": "uint160",
              "name": "sqrtPriceLimitX96",
              "type": "uint160"
            }
          ],
          "internalType": "struct IV3SwapRouter.ExactInputSingleParams",
          "name": "params",
          "type": "tuple"
        }
      ],
      "name": "exactInputSingle",
      "outputs": [
        {
          "internalType": "uint256",
          "name": "amountOut",
          "type": "uint256"
        }
      ],
      "stateMutability": "payable",
      "type": "function"
    },
    {
      "inputs": [
        {
          "components": [
            {
              "internalType": "bytes",
              "name": "path",
              "type": "bytes"
            },
            {
              "internalType": "address",
              "name": "recipient",
              "type": "address"
            },
            {
              "internalType": "uint256",
              "name": "amountOut",
              "type": "uint256"
            },
            {
              "internalType": "uint256",
              "name": "amountInMaximum",
              "type": "uint256"
            }
          ],
          "internalType": "struct IV3SwapRouter.ExactOutputParams",
          "name": "params",
          "type": "tuple"
        }
      ],
      "name": "exactOutput",
      "outputs": [
        {
          "internalType": "uint256",
          "name": "amountIn",
          "type": "uint256"
        }
      ],
      "stateMutability": "payable",
      "type": "function"
    },
    {
      "inputs": [
        {
          "components": [
            {
              "internalType": "address",
              "name": "tokenIn",
              "type": "address"
            },
            {
              "internalType": "address",
              "name": "tokenOut",
              "type": "address"
            },
            {
              "internalType": "uint24",
              "name": "fee",
              "type": "uint24"
            },
            {
              "internalType": "address",
              "name": "recipient",
              "type": "address"
            },
            {
              "internalType": "uint256",
              "name": "amountOut",
              "type": "uint256"
            },
            {
              "internalType": "uint256",
              "name": "amountInMaximum",
              "type": "uint256"
            },
            {
              "internalType": "uint160",
              "name": "sqrtPriceLimitX96",
              "type": "uint160"
            }
          ],
          "internalType": "struct IV3SwapRouter.ExactOutputSingleParams",
          "name": "params",
          "type": "tuple"
        }
      ],
      "name": "exactOutputSingle",
      "outputs": [
        {
          "internalType": "uint256",
          "name": "amountIn",
          "type": "uint256"
        }
      ],
      "stateMutability": "payable",
      "type": "function"
    },
    {
      "inputs": [],
      "name": "factory",
      "outputs": [
        {
          "internalType": "address",
          "name": "",
          "type": "address"
        }
      ],
      "stateMutability": "view",
      "type": "function"
    },
    {
      "inputs": [],
      "name": "factoryV2",
      "outputs": [
        {
          "internalType": "address",
          "name": "",
          "type": "address"
        }
      ],
      "stateMutability": "view",
      "type": "function"
    },
    {
      "inputs": [
        {
          "internalType": "address",
          "name": "token",
          "type": "address"
        },
        {
          "internalType": "uint256",
          "name": "amount",
          "type": "uint256"
        }
      ],
      "name": "getApprovalType",
      "outputs": [
        {
          "internalType": "enum IApproveAndCall.ApprovalType",
          "name": "",
          "type": "uint8"
        }
      ],
      "stateMutability": "nonpayable",
      "type": "function"
    },
    {
      "inputs": [
        {
          "components": [
            {
              "internalType": "address",
              "name": "token0",
              "type": "address"
            },
            {
              "internalType": "address",
              "name": "token1",
              "type": "address"
            },
            {
              "internalType": "uint256",
              "name": "tokenId",
              "type": "uint256"
            },
            {
              "internalType": "uint256",
              "name": "amount0Min",
              "type": "uint256"
            },
            {
              "internalType": "uint256",
              "name": "amount1Min",
              "type": "uint256"
            }
          ],
          "internalType": "struct IApproveAndCall.IncreaseLiquidityParams",
          "name": "params",
          "type": "tuple"
        }
      ],
      "name": "increaseLiquidity",
      "outputs": [
        {
          "internalType": "bytes",
          "name": "result",
          "type": "bytes"
        }
      ],
      "stateMutability": "payable",
      "type": "function"
    },
    {
      "inputs": [
        {
          "components": [
            {
              "internalType": "address",
              "name": "token0",
              "type": "address"
            },
            {
              "internalType": "address",
              "name": "token1",
              "type": "address"
            },
            {
              "internalType": "uint24",
              "name": "fee",
              "type": "uint24"
            },
            {
              "internalType": "int24",
              "name": "tickLower",
              "type": "int24"
            },
            {
              "internalType": "int24",
              "name": "tickUpper",
              "type": "int24"
            },
            {
              "internalType": "uint256",
              "name": "amount0Min",
              "type": "uint256"
            },
            {
              "internalType": "uint256",
              "name": "amount1Min",
              "type": "uint256"
            },
            {
              "internalType": "address",
              "name": "recipient",
              "type": "address"
            }
          ],
          "internalType": "struct IApproveAndCall.MintParams",
          "name": "params",
          "type": "tuple"
        }
      ],
      "name": "mint",
      "outputs": [
        {
          "internalType": "bytes",
          "name": "result",
          "type": "bytes"
        }
      ],
      "stateMutability": "payable",
      "type": "function"
    },
    {
      "inputs": [
        {
          "internalType": "bytes32",
          "name": "previousBlockhash",
          "type": "bytes32"
        },
        {
          "internalType": "bytes[]",
          "name": "data",
          "type": "bytes[]"
        }
      ],
      "name": "multicall",
      "outputs": [
        {
          "internalType": "bytes[]",
          "name": "",
          "type": "bytes[]"
        }
      ],
      "stateMutability": "payable",
      "type": "function"
    },
    {
      "inputs": [
        {
          "internalType": "uint256",
          "name": "deadline",
          "type": "uint256"
        },
        {
          "internalType": "bytes[]",
          "name": "data",
          "type": "bytes[]"
        }
      ],
      "name": "multicall",
      "outputs": [
        {
          "internalType": "bytes[]",
          "name": "",
          "type": "bytes[]"
        }
      ],
      "stateMutability": "payable",
      "type": "function"
    },
    {
      "inputs": [
        {
          "internalType": "bytes[]",
          "name": "data",
          "type": "bytes[]"
        }
      ],
      "name": "multicall",
      "outputs": [
        {
          "internalType": "bytes[]",
          "name": "results",
          "type": "bytes[]"
        }
      ],
      "stateMutability": "payable",
      "type": "function"
    },
    {
      "inputs": [],
      "name": "positionManager",
      "outputs": [
        {
          "internalType": "address",
          "name": "",
          "type": "address"
        }
      ],
      "stateMutability": "view",
      "type": "function"
    },
    {
      "inputs": [
        {
          "internalType": "address",
          "name": "token",
          "type": "address"
        },
        {
          "internalType": "uint256",
          "name": "value",
          "type": "uint256"
        }
      ],
      "name": "pull",
      "outputs": [],
      "stateMutability": "payable",
      "type": "function"
    },
    {
      "inputs": [],
      "name": "refundETH",
      "outputs": [],
      "stateMutability": "payable",
      "type": "function"
    },
    {
      "inputs": [
        {
          "internalType": "address",
          "name": "token",
          "type": "address"
        },
        {
          "internalType": "uint256",
          "name": "value",
          "type": "uint256"
        },
        {
          "internalType": "uint256",
          "name": "deadline",
          "type": "uint256"
        },
        {
          "internalType": "uint8",
          "name": "v",
          "type": "uint8"
        },
        {
          "internalType": "bytes32",
          "name": "r",
          "type": "bytes32"
        },
        {
          "internalType": "bytes32",
          "name": "s",
          "type": "bytes32"
        }
      ],
      "name": "selfPermit",
      "outputs": [],
      "stateMutability": "payable",
      "type": "function"
    },
    {
      "inputs": [
        {
          "internalType": "address",
          "name": "token",
          "type": "address"
        },
        {
          "internalType": "uint256",
          "name": "nonce",
          "type": "uint256"
        },
        {
          "internalType": "uint256",
          "name": "expiry",
          "type": "uint256"
        },
        {
          "internalType": "uint8",
          "name": "v",
          "type": "uint8"
        },
        {
          "internalType": "bytes32",
          "name": "r",
          "type": "bytes32"
        },
        {
          "internalType": "bytes32",
          "name": "s",
          "type": "bytes32"
        }
      ],
      "name": "selfPermitAllowed",
      "outputs": [],
      "stateMutability": "payable",
      "type": "function"
    },
    {
      "inputs": [
        {
          "internalType": "address",
          "name": "token",
          "type": "address"
        },
        {
          "internalType": "uint256",
          "name": "nonce",
          "type": "uint256"
        },
        {
          "internalType": "uint256",
          "name": "expiry",
          "type": "uint256"
        },
        {
          "internalType": "uint8",
          "name": "v",
          "type": "uint8"
        },
        {
          "internalType": "bytes32",
          "name": "r",
          "type": "bytes32"
        },
        {
          "internalType": "bytes32",
          "name": "s",
          "type": "bytes32"
        }
      ],
      "name": "selfPermitAllowedIfNecessary",
      "outputs": [],
      "stateMutability": "payable",
      "type": "function"
    },
    {
      "inputs": [
        {
          "internalType": "address",
          "name": "token",
          "type": "address"
        },
        {
          "internalType": "uint256",
          "name": "value",
          "type": "uint256"
        },
        {
          "internalType": "uint256",
          "name": "deadline",
          "type": "uint256"
        },
        {
          "internalType": "uint8",
          "name": "v",
          "type": "uint8"
        },
        {
          "internalType": "bytes32",
          "name": "r",
          "type": "bytes32"
        },
        {
          "internalType": "bytes32",
          "name": "s",
          "type": "bytes32"
        }
      ],
      "name": "selfPermitIfNecessary",
      "outputs": [],
      "stateMutability": "payable",
      "type": "function"
    },
    {
      "inputs": [
        {
          "internalType": "uint256",
          "name": "_time",
          "type": "uint256"
        }
      ],
      "name": "setTime",
      "outputs": [],
      "stateMutability": "nonpayable",
      "type": "function"
    },
    {
      "inputs": [
        {
          "internalType": "uint256",
          "name": "amountIn",
          "type": "uint256"
        },
        {
          "internalType": "uint256",
          "name": "amountOutMin",
          "type": "uint256"
        },
        {
          "internalType": "address[]",
          "name": "path",
          "type": "address[]"
        },
        {
          "internalType": "address",
          "name": "to",
          "type": "address"
        }
      ],
      "name": "swapExactTokensForTokens",
      "outputs": [
        {
          "internalType": "uint256",
          "name": "amountOut",
          "type": "uint256"
        }
      ],
      "stateMutability": "payable",
      "type": "function"
    },
    {
      "inputs": [
        {
          "internalType": "uint256",
          "name": "amountOut",
          "type": "uint256"
        },
        {
          "internalType": "uint256",
          "name": "amountInMax",
          "type": "uint256"
        },
        {
          "internalType": "address[]",
          "name": "path",
          "type": "address[]"
        },
        {
          "internalType": "address",
          "name": "to",
          "type": "address"
        }
      ],
      "name": "swapTokensForExactTokens",
      "outputs": [
        {
          "internalType": "uint256",
          "name": "amountIn",
          "type": "uint256"
        }
      ],
      "stateMutability": "payable",
      "type": "function"
    },
    {
      "inputs": [
        {
          "internalType": "address",
          "name": "token",
          "type": "address"
        },
        {
          "internalType": "uint256",
          "name": "amountMinimum",
          "type": "uint256"
        },
        {
          "internalType": "address",
          "name": "recipient",
          "type": "address"
        }
      ],
      "name": "sweepToken",
      "outputs": [],
      "stateMutability": "payable",
      "type": "function"
    },
    {
      "inputs": [
        {
          "internalType": "address",
          "name": "token",
          "type": "address"
        },
        {
          "internalType": "uint256",
          "name": "amountMinimum",
          "type": "uint256"
        }
      ],
      "name": "sweepToken",
      "outputs": [],
      "stateMutability": "payable",
      "type": "function"
    },
    {
      "inputs": [
        {
          "internalType": "address",
          "name": "token",
          "type": "address"
        },
        {
          "internalType": "uint256",
          "name": "amountMinimum",
          "type": "uint256"
        },
        {
          "internalType": "uint256",
          "name": "feeBips",
          "type": "uint256"
        },
        {
          "internalType": "address",
          "name": "feeRecipient",
          "type": "address"
        }
      ],
      "name": "sweepTokenWithFee",
      "outputs": [],
      "stateMutability": "payable",
      "type": "function"
    },
    {
      "inputs": [
        {
          "internalType": "address",
          "name": "token",
          "type": "address"
        },
        {
          "internalType": "uint256",
          "name": "amountMinimum",
          "type": "uint256"
        },
        {
          "internalType": "address",
          "name": "recipient",
          "type": "address"
        },
        {
          "internalType": "uint256",
          "name": "feeBips",
          "type": "uint256"
        },
        {
          "internalType": "address",
          "name": "feeRecipient",
          "type": "address"
        }
      ],
      "name": "sweepTokenWithFee",
      "outputs": [],
      "stateMutability": "payable",
      "type": "function"
    },
    {
      "inputs": [
        {
          "internalType": "int256",
          "name": "amount0Delta",
          "type": "int256"
        },
        {
          "internalType": "int256",
          "name": "amount1Delta",
          "type": "int256"
        },
        {
          "internalType": "bytes",
          "name": "_data",
          "type": "bytes"
        }
      ],
      "name": "uniswapV3SwapCallback",
      "outputs": [],
      "stateMutability": "nonpayable",
      "type": "function"
    },
    {
      "inputs": [
        {
          "internalType": "uint256",
          "name": "amountMinimum",
          "type": "uint256"
        },
        {
          "internalType": "address",
          "name": "recipient",
          "type": "address"
        }
      ],
      "name": "unwrapWETH9",
      "outputs": [],
      "stateMutability": "payable",
      "type": "function"
    },
    {
      "inputs": [
        {
          "internalType": "uint256",
          "name": "amountMinimum",
          "type": "uint256"
        }
      ],
      "name": "unwrapWETH9",
      "outputs": [],
      "stateMutability": "payable",
      "type": "function"
    },
    {
      "inputs": [
        {
          "internalType": "uint256",
          "name": "amountMinimum",
          "type": "uint256"
        },
        {
          "internalType": "address",
          "name": "recipient",
          "type": "address"
        },
        {
          "internalType": "uint256",
          "name": "feeBips",
          "type": "uint256"
        },
        {
          "internalType": "address",
          "name": "feeRecipient",
          "type": "address"
        }
      ],
      "name": "unwrapWETH9WithFee",
      "outputs": [],
      "stateMutability": "payable",
      "type": "function"
    },
    {
      "inputs": [
        {
          "internalType": "uint256",
          "name": "amountMinimum",
          "type": "uint256"
        },
        {
          "internalType": "uint256",
          "name": "feeBips",
          "type": "uint256"
        },
        {
          "internalType": "address",
          "name": "feeRecipient",
          "type": "address"
        }
      ],
      "name": "unwrapWETH9WithFee",
      "outputs": [],
      "stateMutability": "payable",
      "type": "function"
    },
    {
      "inputs": [
        {
          "internalType": "uint256",
          "name": "value",
          "type": "uint256"
        }
      ],
      "name": "wrapETH",
      "outputs": [],
      "stateMutability": "payable",
      "type": "function"
    },
    {
      "stateMutability": "payable",
      "type": "receive"
    }
  ],
  "bytecode": {
    "object": "0x6101006040526000196000553480156200001857600080fd5b50604051620050c4380380620050c48339810160408190526200003b9162000087565b6001600160601b0319606094851b811660805291841b821660a05291831b811660c052911b1660e052620000e3565b80516001600160a01b03811681146200008257600080fd5b919050565b600080600080608085870312156200009d578384fd5b620000a8856200006a565b9350620000b8602086016200006a565b9250620000c8604086016200006a565b9150620000d8606086016200006a565b905092959194509250565b60805160601c60a05160601c60c05160601c60e05160601c614f40620001846000398061024f528061098e5280610fd852806110c3528061115d52806113255280611410528061258c52806125d252806126465250806119795280611e9152806131ab5250806112e552806116c752806119bc52806129c6525080610a7e5280610b385280610d9752806112c1528061277152806128d85250614f406000f3fe60806040526004361061023f5760003560e01c80639b2c0a371161012e578063dee00f35116100ab578063f100b2051161006f578063f100b205146105bb578063f25801a7146105ce578063f2d5d56b146105ee578063f3995c6714610601578063fa461e3314610614576102af565b8063dee00f3514610535578063df2ab5bb14610562578063e0e189a014610575578063e90a182f14610588578063efdeed8e1461059b576102af565b8063b858183f116100f2578063b858183f146104d4578063c2e3140a146104e7578063c45a0155146104fa578063cab372ce1461050f578063d4ef38de14610522576102af565b80639b2c0a3714610475578063a4a78f0c14610488578063ab3fdd501461049b578063ac9650d8146104ae578063b3a2af13146104c1576102af565b8063472b43f3116101bc578063571ac8b011610180578063571ac8b0146104125780635ae401dc14610425578063639d71a91461043857806368e0d4e11461044b578063791b98bc14610460576102af565b8063472b43f3146103a457806349404b7c146103b757806349616997146103ca5780634aa4a4fc146103dd5780635023b4df146103ff576102af565b80631f0464d1116102035780631f0464d11461032b5780633068c5541461034b5780633beb26c41461035e57806342712a671461037e5780634659a49414610391576102af565b806304e45aaf146102b457806309b81346146102dd57806311ed56c9146102f057806312210e8a146103105780631c58db4f14610318576102af565b366102af57336001600160a01b037f000000000000000000000000000000000000000000000000000000000000000016146102ad576040805162461bcd60e51b81526020600482015260096024820152684e6f7420574554483960b81b604482015290519081900360640190fd5b005b600080fd5b6102c76102c2366004614623565b610634565b6040516102d49190614dbe565b60405180910390f35b6102c76102eb3660046146bd565b61076f565b6103036102fe366004614716565b610817565b6040516102d49190614baa565b6102ad61097a565b6102ad610326366004614898565b61098c565b61033e61033936600461438d565b610a03565b6040516102d49190614b4a565b6102ad6103593660046141c0565b610a5f565b34801561036a57600080fd5b506102ad610379366004614898565b610a72565b6102c761038c366004614962565b610a77565b6102ad61039f366004614209565b610c1d565b6102c76103b2366004614962565b610cb7565b6102ad6103c53660046148c8565b610fd4565b6102ad6103d8366004614898565b61114e565b3480156103e957600080fd5b506103f261115b565b6040516102d49190614abd565b6102c761040d3660046146f4565b61117f565b6102ad6104203660046140d3565b611241565b61033e61043336600461438d565b611256565b6102ad6104463660046140d3565b6112ab565b34801561045757600080fd5b506103f26112bf565b34801561046c57600080fd5b506103f26112e3565b6102ad6104833660046148f7565b611307565b6102ad610496366004614209565b6114d1565b6102ad6104a93660046140d3565b611562565b61033e6104bc366004614264565b611582565b6103036104cf3660046143d6565b6116c1565b6102c76104e236600461457e565b611772565b6102ad6104f5366004614209565b6118e8565b34801561050657600080fd5b506103f2611977565b6102ad61051d3660046140d3565b611576565b6102ad610530366004614935565b61199b565b34801561054157600080fd5b506105556105503660046140f6565b6119a7565b6040516102d49190614bbd565b6102ad610570366004614121565b611acf565b6102ad610583366004614162565b611ba7565b6102ad6105963660046140f6565b611cce565b3480156105a757600080fd5b506102ad6105b63660046142a3565b611cdd565b6103036105c9366004614705565b611d15565b3480156105da57600080fd5b506102ad6105e9366004614408565b611d97565b6102ad6105fc3660046140f6565b611dce565b6102ad61060f366004614209565b611dda565b34801561062057600080fd5b506102ad61062f36600461449b565b611e4c565b6000806000836080015114156106cb575081516040516370a0823160e01b81526001916001600160a01b0316906370a0823190610675903090600401614abd565b60206040518083038186803b15801561068d57600080fd5b505afa1580156106a1573d6000803e3d6000fd5b505050506040513d601f19601f820116820180604052508101906106c591906148b0565b60808401525b61073a836080015184606001518560c001516040518060400160405280886000015189604001518a6020015160405160200161070993929190614a5b565b604051602081830303815290604052815260200186610728573361072a565b305b6001600160a01b03169052611f5c565b91508260a001518210156107695760405162461bcd60e51b815260040161076090614c53565b60405180910390fd5b50919050565b60006107e36040830180359061078890602086016140d3565b60408051808201909152600090806107a08880614df4565b8080601f016020809104026020016040519081016040528093929190818152602001838380828437600092019190915250505090825250336020909101526120cc565b5050600054606082013581111561080c5760405162461bcd60e51b815260040161076090614c0b565b600019600055919050565b60408051610160810190915260609061097290634418b22b60e11b908061084160208701876140d3565b6001600160a01b0316815260200185602001602081019061086291906140d3565b6001600160a01b03168152602001610880606087016040880161487e565b62ffffff16815260200161089a608087016060880161445c565b60020b81526020016108b260a087016080880161445c565b60020b81526020908101906108d2906108cd908801886140d3565b612265565b81526020016108ed8660200160208101906108cd91906140d3565b815260a0860135602082015260c08601356040820152606001610917610100870160e088016140d3565b6001600160a01b0316815260200160001981525060405160240161093b9190614cc4565b60408051601f198184030181529190526020810180516001600160e01b03166001600160e01b0319909316929092179091526116c1565b90505b919050565b471561098a5761098a33476122e4565b565b7f00000000000000000000000000000000000000000000000000000000000000006001600160a01b031663d0e30db0826040518263ffffffff1660e01b81526004016000604051808303818588803b1580156109e757600080fd5b505af11580156109fb573d6000803e3d6000fd5b505050505050565b60608380600143034014610a4a576040805162461bcd60e51b8152602060048201526009602482015268084d8dec6d6d0c2e6d60bb1b604482015290519081900360640190fd5b610a548484611582565b91505b509392505050565b610a6c8484338585611ba7565b50505050565b600155565b6000610ad77f0000000000000000000000000000000000000000000000000000000000000000878686808060200260200160405190810160405280939291908181526020018383602002808284376000920191909152506123d392505050565b600081518110610ae357fe5b6020026020010151905084811115610b0d5760405162461bcd60e51b815260040161076090614c0b565b610ba684846000818110610b1d57fe5b9050602002016020810190610b3291906140d3565b33610ba07f000000000000000000000000000000000000000000000000000000000000000088886000818110610b6457fe5b9050602002016020810190610b7991906140d3565b89896001818110610b8657fe5b9050602002016020810190610b9b91906140d3565b6124cf565b8461258a565b6001600160a01b03821660011415610bc057339150610bd6565b6001600160a01b03821660021415610bd6573091505b610c1484848080602002602001604051908101604052809392919081815260200183836020028082843760009201919091525086925061271a915050565b95945050505050565b604080516323f2ebc360e21b815233600482015230602482015260448101879052606481018690526001608482015260ff851660a482015260c4810184905260e4810183905290516001600160a01b03881691638fcbaf0c9161010480830192600092919082900301818387803b158015610c9757600080fd5b505af1158015610cab573d6000803e3d6000fd5b50505050505050505050565b60008086610d60575060018484600081610ccd57fe5b9050602002016020810190610ce291906140d3565b6001600160a01b03166370a08231306040518263ffffffff1660e01b8152600401610d0d9190614abd565b60206040518083038186803b158015610d2557600080fd5b505afa158015610d39573d6000803e3d6000fd5b505050506040513d601f19601f82011682018060405250810190610d5d91906148b0565b96505b610deb85856000818110610d7057fe5b9050602002016020810190610d8591906140d3565b82610d905733610d92565b305b610de57f000000000000000000000000000000000000000000000000000000000000000089896000818110610dc357fe5b9050602002016020810190610dd891906140d3565b8a8a6001818110610b8657fe5b8a61258a565b6001600160a01b03831660011415610e0557339250610e1b565b6001600160a01b03831660021415610e1b573092505b600085856000198101818110610e2d57fe5b9050602002016020810190610e4291906140d3565b6001600160a01b03166370a08231856040518263ffffffff1660e01b8152600401610e6d9190614abd565b60206040518083038186803b158015610e8557600080fd5b505afa158015610e99573d6000803e3d6000fd5b505050506040513d601f19601f82011682018060405250810190610ebd91906148b0565b9050610efd86868080602002602001604051908101604052809392919081815260200183836020028082843760009201919091525088925061271a915050565b610fa78187876000198101818110610f1157fe5b9050602002016020810190610f2691906140d3565b6001600160a01b03166370a08231876040518263ffffffff1660e01b8152600401610f519190614abd565b60206040518083038186803b158015610f6957600080fd5b505afa158015610f7d573d6000803e3d6000fd5b505050506040513d601f19601f82011682018060405250810190610fa191906148b0565b9061299d565b925086831015610fc95760405162461bcd60e51b815260040161076090614c53565b505095945050505050565b60007f00000000000000000000000000000000000000000000000000000000000000006001600160a01b03166370a08231306040518263ffffffff1660e01b815260040180826001600160a01b0316815260200191505060206040518083038186803b15801561104357600080fd5b505afa158015611057573d6000803e3d6000fd5b505050506040513d602081101561106d57600080fd5b50519050828110156110bb576040805162461bcd60e51b8152602060048201526012602482015271496e73756666696369656e7420574554483960701b604482015290519081900360640190fd5b8015611149577f00000000000000000000000000000000000000000000000000000000000000006001600160a01b0316632e1a7d4d826040518263ffffffff1660e01b815260040180828152602001915050600060405180830381600087803b15801561112757600080fd5b505af115801561113b573d6000803e3d6000fd5b5050505061114982826122e4565b505050565b6111588133610fd4565b50565b7f000000000000000000000000000000000000000000000000000000000000000081565b600061121b6080830180359061119890606086016140d3565b6111a860e0860160c087016140d3565b60405180604001604052808760200160208101906111c691906140d3565b6111d660608a0160408b0161487e565b6111e360208b018b6140d3565b6040516020016111f593929190614a5b565b6040516020818303038152906040528152602001336001600160a01b03168152506120cc565b90508160a0013581111561080c5760405162461bcd60e51b815260040161076090614c0b565b61124d816000196129ad565b61115857600080fd5b60608380611262612aa1565b1115610a4a576040805162461bcd60e51b8152602060048201526013602482015272151c985b9cd858dd1a5bdb881d1bdbc81bdb19606a1b604482015290519081900360640190fd5b6112b68160006129ad565b61124157600080fd5b7f000000000000000000000000000000000000000000000000000000000000000081565b7f000000000000000000000000000000000000000000000000000000000000000081565b600082118015611318575060648211155b61132157600080fd5b60007f00000000000000000000000000000000000000000000000000000000000000006001600160a01b03166370a08231306040518263ffffffff1660e01b815260040180826001600160a01b0316815260200191505060206040518083038186803b15801561139057600080fd5b505afa1580156113a4573d6000803e3d6000fd5b505050506040513d60208110156113ba57600080fd5b5051905084811015611408576040805162461bcd60e51b8152602060048201526012602482015271496e73756666696369656e7420574554483960701b604482015290519081900360640190fd5b80156114ca577f00000000000000000000000000000000000000000000000000000000000000006001600160a01b0316632e1a7d4d826040518263ffffffff1660e01b815260040180828152602001915050600060405180830381600087803b15801561147457600080fd5b505af1158015611488573d6000803e3d6000fd5b5050505060006127106114a48584612aa790919063ffffffff16565b816114ab57fe5b04905080156114be576114be83826122e4565b6109fb858284036122e4565b5050505050565b60408051636eb1769f60e11b81523360048201523060248201529051600019916001600160a01b0389169163dd62ed3e91604480820192602092909190829003018186803b15801561152257600080fd5b505afa158015611536573d6000803e3d6000fd5b505050506040513d602081101561154c57600080fd5b505110156109fb576109fb868686868686610c1d565b61156d8160006129ad565b61157657600080fd5b61124d816001196129ad565b6060816001600160401b038111801561159a57600080fd5b506040519080825280602002602001820160405280156115ce57816020015b60608152602001906001900390816115b95790505b50905060005b828110156116ba57600080308686858181106115ec57fe5b90506020028101906115fe9190614df4565b60405161160c929190614a91565b600060405180830381855af49150503d8060008114611647576040519150601f19603f3d011682016040523d82523d6000602084013e61164c565b606091505b5091509150816116985760448151101561166557600080fd5b6004810190508080602001905181019061167f9190614515565b60405162461bcd60e51b81526004016107609190614baa565b808484815181106116a557fe5b602090810291909101015250506001016115d4565b5092915050565b606060007f00000000000000000000000000000000000000000000000000000000000000006001600160a01b0316836040516116fd9190614aa1565b6000604051808303816000865af19150503d806000811461173a576040519150601f19603f3d011682016040523d82523d6000602084013e61173f565b606091505b5092509050806107695760448251101561175857600080fd5b6004820191508180602001905181019061167f9190614515565b60008060008360400151141561181d576001905060006117958460000151612acb565b50506040516370a0823160e01b81529091506001600160a01b038216906370a08231906117c6903090600401614abd565b60206040518083038186803b1580156117de57600080fd5b505afa1580156117f2573d6000803e3d6000fd5b505050506040513d601f19601f8201168201806040525081019061181691906148b0565b6040850152505b60008161182a573361182c565b305b90505b600061183e8560000151612afc565b905061188a856040015182611857578660200151611859565b305b600060405180604001604052806118738b60000151612b04565b8152602001876001600160a01b0316815250611f5c565b604086015280156118aa5784513092506118a390612b13565b85526118b7565b84604001519350506118bd565b5061182f565b83606001518310156118e15760405162461bcd60e51b815260040161076090614c53565b5050919050565b60408051636eb1769f60e11b8152336004820152306024820152905186916001600160a01b0389169163dd62ed3e91604480820192602092909190829003018186803b15801561193757600080fd5b505afa15801561194b573d6000803e3d6000fd5b505050506040513d602081101561196157600080fd5b505110156109fb576109fb868686868686611dda565b7f000000000000000000000000000000000000000000000000000000000000000081565b61114983338484611307565b600081836001600160a01b031663dd62ed3e307f00000000000000000000000000000000000000000000000000000000000000006040518363ffffffff1660e01b81526004016119f8929190614ad1565b60206040518083038186803b158015611a1057600080fd5b505afa158015611a24573d6000803e3d6000fd5b505050506040513d601f19601f82011682018060405250810190611a4891906148b0565b10611a5557506000611ac9565b611a61836000196129ad565b15611a6e57506001611ac9565b611a7a836001196129ad565b15611a8757506002611ac9565b611a928360006129ad565b611a9b57600080fd5b611aa7836000196129ad565b15611ab457506003611ac9565b611ac0836001196129ad565b156102af575060045b92915050565b6000836001600160a01b03166370a08231306040518263ffffffff1660e01b815260040180826001600160a01b0316815260200191505060206040518083038186803b158015611b1e57600080fd5b505afa158015611b32573d6000803e3d6000fd5b505050506040513d6020811015611b4857600080fd5b5051905082811015611b96576040805162461bcd60e51b815260206004820152601260248201527124b739bab33334b1b4b2b73a103a37b5b2b760711b604482015290519081900360640190fd5b8015610a6c57610a6c848383612b2a565b600082118015611bb8575060648211155b611bc157600080fd5b6000856001600160a01b03166370a08231306040518263ffffffff1660e01b815260040180826001600160a01b0316815260200191505060206040518083038186803b158015611c1057600080fd5b505afa158015611c24573d6000803e3d6000fd5b505050506040513d6020811015611c3a57600080fd5b5051905084811015611c88576040805162461bcd60e51b815260206004820152601260248201527124b739bab33334b1b4b2b73a103a37b5b2b760711b604482015290519081900360640190fd5b80156109fb576000612710611c9d8386612aa7565b81611ca457fe5b0490508015611cb857611cb8878483612b2a565b611cc58786838503612b2a565b50505050505050565b611cd9828233611acf565b5050565b600080611ceb868685612c71565b915091508362ffffff16818303126109fb5760405162461bcd60e51b815260040161076090614c37565b606061097263219f5d1760e01b6040518060c0016040528085604001358152602001611d4d8660000160208101906108cd91906140d3565b8152602001611d688660200160208101906108cd91906140d3565b8152602001856060013581526020018560800135815260200160001981525060405160240161093b9190614c80565b600080611da48584612e67565b915091508362ffffff16818303126114ca5760405162461bcd60e51b815260040161076090614c37565b611cd98233308461303e565b6040805163d505accf60e01b8152336004820152306024820152604481018790526064810186905260ff8516608482015260a4810184905260c4810183905290516001600160a01b0388169163d505accf9160e480830192600092919082900301818387803b158015610c9757600080fd5b6000841380611e5b5750600083135b611e6457600080fd5b6000611e7282840184614728565b90506000806000611e868460000151612acb565b925092509250611eb87f000000000000000000000000000000000000000000000000000000000000000084848461318e565b5060008060008a13611edf57846001600160a01b0316846001600160a01b03161089611ef6565b836001600160a01b0316856001600160a01b0316108a5b915091508115611f1557611f10858760200151338461258a565b610cab565b8551611f2090612afc565b15611f45578551611f3090612b13565b8652611f3f81336000896120cc565b50610cab565b80600081905550610cab848760200151338461258a565b60006001600160a01b03841660011415611f7857339350611f8e565b6001600160a01b03841660021415611f8e573093505b6000806000611fa08560000151612acb565b919450925090506001600160a01b0380831690841610600080611fc48686866131a4565b6001600160a01b031663128acb088b85611fdd8f6131e2565b6001600160a01b038e1615611ff2578d612018565b876120115773fffd8963efd1fc6a506488495d951d5263988d25612018565b6401000276a45b8d6040516020016120299190614d72565b6040516020818303038152906040526040518663ffffffff1660e01b8152600401612058959493929190614aeb565b6040805180830381600087803b15801561207157600080fd5b505af1158015612085573d6000803e3d6000fd5b505050506040513d601f19601f820116820180604052508101906120a99190614478565b91509150826120b857816120ba565b805b6000039b9a5050505050505050505050565b60006001600160a01b038416600114156120e8573393506120fe565b6001600160a01b038416600214156120fe573093505b60008060006121108560000151612acb565b919450925090506001600160a01b03808416908316106000806121348587866131a4565b6001600160a01b031663128acb088b8561214d8f6131e2565b6000036001600160a01b038e1615612165578d61218b565b876121845773fffd8963efd1fc6a506488495d951d5263988d2561218b565b6401000276a45b8d60405160200161219c9190614d72565b6040516020818303038152906040526040518663ffffffff1660e01b81526004016121cb959493929190614aeb565b6040805180830381600087803b1580156121e457600080fd5b505af11580156121f8573d6000803e3d6000fd5b505050506040513d601f19601f8201168201806040525081019061221c9190614478565b91509150600083612231578183600003612237565b82826000035b90985090506001600160a01b038a16612256578b811461225657600080fd5b50505050505050949350505050565b6040516370a0823160e01b81526000906001600160a01b038316906370a0823190612294903090600401614abd565b60206040518083038186803b1580156122ac57600080fd5b505afa1580156122c0573d6000803e3d6000fd5b505050506040513d601f19601f8201168201806040525081019061097291906148b0565b604080516000808252602082019092526001600160a01b0384169083906040518082805190602001908083835b602083106123305780518252601f199092019160209182019101612311565b6001836020036101000a03801982511681845116808217855250505050505090500191505060006040518083038185875af1925050503d8060008114612392576040519150601f19603f3d011682016040523d82523d6000602084013e612397565b606091505b5050905080611149576040805162461bcd60e51b815260206004820152600360248201526253544560e81b604482015290519081900360640190fd5b60606002825110156123e457600080fd5b81516001600160401b03811180156123fb57600080fd5b50604051908082528060200260200182016040528015612425578160200160208202803683370190505b509050828160018351038151811061243957fe5b60209081029190910101528151600019015b8015610a57576000806124888786600186038151811061246757fe5b602002602001015187868151811061247b57fe5b60200260200101516131f8565b915091506124aa84848151811061249b57fe5b602002602001015183836132bf565b8460018503815181106124b957fe5b602090810291909101015250506000190161244b565b60008060006124de858561337b565b604080516001600160601b0319606094851b811660208084019190915293851b81166034830152825160288184030181526048830184528051908501206001600160f81b031960688401529a90941b9093166069840152607d8301989098527f96e8ac4277198ff8b6f785478aa9a39f403cb768dd02cbee326c3e7da348845f609d808401919091528851808403909101815260bd909201909752805196019590952095945050505050565b7f00000000000000000000000000000000000000000000000000000000000000006001600160a01b0316846001600160a01b03161480156125cb5750804710155b156126ed577f00000000000000000000000000000000000000000000000000000000000000006001600160a01b031663d0e30db0826040518263ffffffff1660e01b81526004016000604051808303818588803b15801561262b57600080fd5b505af115801561263f573d6000803e3d6000fd5b50505050507f00000000000000000000000000000000000000000000000000000000000000006001600160a01b031663a9059cbb83836040518363ffffffff1660e01b815260040180836001600160a01b0316815260200182815260200192505050602060405180830381600087803b1580156126bb57600080fd5b505af11580156126cf573d6000803e3d6000fd5b505050506040513d60208110156126e557600080fd5b50610a6c9050565b6001600160a01b03831630141561270e57612709848383612b2a565b610a6c565b610a6c8484848461303e565b60005b60018351038110156111495760008084838151811061273857fe5b602002602001015185846001018151811061274f57fe5b6020026020010151915091506000612767838361337b565b50905060006127977f000000000000000000000000000000000000000000000000000000000000000085856124cf565b9050600080600080846001600160a01b0316630902f1ac6040518163ffffffff1660e01b815260040160606040518083038186803b1580156127d857600080fd5b505afa1580156127ec573d6000803e3d6000fd5b505050506040513d601f19601f8201168201806040525081019061281091906147b7565b506001600160701b031691506001600160701b03169150600080876001600160a01b03168a6001600160a01b03161461284a57828461284d565b83835b91509150612881828b6001600160a01b03166370a082318a6040518263ffffffff1660e01b8152600401610f519190614abd565b955061288e8683836133df565b945050505050600080856001600160a01b0316886001600160a01b0316146128b8578260006128bc565b6000835b91509150600060028c51038a106128d3578a612914565b6129147f0000000000000000000000000000000000000000000000000000000000000000898e8d6002018151811061290757fe5b60200260200101516124cf565b6040805160008152602081019182905263022c0d9f60e01b9091529091506001600160a01b0387169063022c0d9f906129569086908690869060248101614dc7565b600060405180830381600087803b15801561297057600080fd5b505af1158015612984573d6000803e3d6000fd5b50506001909b019a5061271d9950505050505050505050565b80820382811115611ac957600080fd5b6000806000846001600160a01b031663095ea7b360e01b7f0000000000000000000000000000000000000000000000000000000000000000866040516024016129f7929190614b31565b60408051601f198184030181529181526020820180516001600160e01b03166001600160e01b0319909416939093179092529051612a359190614aa1565b6000604051808303816000865af19150503d8060008114612a72576040519150601f19603f3d011682016040523d82523d6000602084013e612a77565b606091505b5091509150818015610c14575080511580610c14575080806020019051810190610c149190614373565b60015490565b6000821580612ac257505081810281838281612abf57fe5b04145b611ac957600080fd5b60008080612ad9848261349b565b9250612ae684601461354b565b9050612af384601761349b565b91509193909250565b516042111590565b6060610972826000602b6135f2565b8051606090610972908390601790601619016135f2565b604080516001600160a01b038481166024830152604480830185905283518084039091018152606490920183526020820180516001600160e01b031663a9059cbb60e01b1781529251825160009485949389169392918291908083835b60208310612ba65780518252601f199092019160209182019101612b87565b6001836020036101000a0380198251168184511680821785525050505050509050019150506000604051808303816000865af19150503d8060008114612c08576040519150601f19603f3d011682016040523d82523d6000602084013e612c0d565b606091505b5091509150818015612c3b575080511580612c3b5750808060200190516020811015612c3857600080fd5b50515b6114ca576040805162461bcd60e51b815260206004820152600260248201526114d560f21b604482015290519081900360640190fd5b6000808351855114612c8257600080fd5b600085516001600160401b0381118015612c9b57600080fd5b50604051908082528060200260200182016040528015612cd557816020015b612cc2613f2d565b815260200190600190039081612cba5790505b509050600086516001600160401b0381118015612cf157600080fd5b50604051908082528060200260200182016040528015612d2b57816020015b612d18613f2d565b815260200190600190039081612d105790505b50905060005b8751811015612e4057600080612d5a8a8481518110612d4c57fe5b602002602001015189612e67565b91509150612d6782613743565b858481518110612d7357fe5b60200260200101516000019060020b908160020b81525050612d9481613743565b848481518110612da057fe5b60200260200101516000019060020b908160020b81525050888381518110612dc457fe5b6020026020010151858481518110612dd857fe5b6020026020010151602001906001600160801b031690816001600160801b031681525050888381518110612e0857fe5b6020026020010151848481518110612e1c57fe5b6020908102919091018101516001600160801b039092169101525050600101612d31565b50612e4a82613754565b60020b9350612e5881613754565b60020b92505050935093915050565b600080600080612e768661380c565b90506000805b8281101561301f576000806000612e928b612acb565b9250925092506000612ea58484846131a4565b905060008063ffffffff8d16612ece57612ebe83613819565b600291820b9350900b9050612f63565b612ed8838e613a56565b8160020b91505080925050826001600160a01b0316633850c7bd6040518163ffffffff1660e01b815260040160e06040518083038186803b158015612f1c57600080fd5b505afa158015612f30573d6000803e3d6000fd5b505050506040513d601f19601f82011682018060405250810190612f5491906147f2565b50505060029290920b93505050505b60018903871415612f8a57846001600160a01b0316866001600160a01b0316109950612f99565b612f938e612b13565b9d508597505b6000871580612fec5750866001600160a01b0316896001600160a01b031610612fd657866001600160a01b0316866001600160a01b031610612fec565b856001600160a01b0316876001600160a01b0316105b90508015613001579b82019b9a81019a61300c565b828d039c50818c039b505b505060019095019450612e7c9350505050565b50826130345760001985029450600019840293505b5050509250929050565b604080516001600160a01b0385811660248301528481166044830152606480830185905283518084039091018152608490920183526020820180516001600160e01b03166323b872dd60e01b178152925182516000948594938a169392918291908083835b602083106130c25780518252601f1990920191602091820191016130a3565b6001836020036101000a0380198251168184511680821785525050505050509050019150506000604051808303816000865af19150503d8060008114613124576040519150601f19603f3d011682016040523d82523d6000602084013e613129565b606091505b5091509150818015613157575080511580613157575080806020019051602081101561315457600080fd5b50515b6109fb576040805162461bcd60e51b815260206004820152600360248201526229aa2360e91b604482015290519081900360640190fd5b6000610c148561319f868686613dc5565b613e1b565b60006131da7f00000000000000000000000000000000000000000000000000000000000000006131d5868686613dc5565b613e3e565b949350505050565b6000600160ff1b82106131f457600080fd5b5090565b6000806000613207858561337b565b5090506000806132188888886124cf565b6001600160a01b0316630902f1ac6040518163ffffffff1660e01b815260040160606040518083038186803b15801561325057600080fd5b505afa158015613264573d6000803e3d6000fd5b505050506040513d606081101561327a57600080fd5b5080516020909101516001600160701b0391821693501690506001600160a01b03878116908416146132ad5780826132b0565b81815b90999098509650505050505050565b6000808411613315576040805162461bcd60e51b815260206004820152601a60248201527f494e53554646494349454e545f4f55545055545f414d4f554e54000000000000604482015290519081900360640190fd5b6000831180156133255750600082115b61332e57600080fd5b60006133466103e86133408688612aa7565b90612aa7565b9050600061335a6103e5613340868961299d565b9050613371600182848161336a57fe5b0490613f1d565b9695505050505050565b600080826001600160a01b0316846001600160a01b0316141561339d57600080fd5b826001600160a01b0316846001600160a01b0316106133bd5782846133c0565b83835b90925090506001600160a01b0382166133d857600080fd5b9250929050565b6000808411613435576040805162461bcd60e51b815260206004820152601960248201527f494e53554646494349454e545f494e5055545f414d4f554e5400000000000000604482015290519081900360640190fd5b6000831180156134455750600082115b61344e57600080fd5b600061345c856103e5612aa7565b9050600061346a8285612aa7565b905060006134848361347e886103e8612aa7565b90613f1d565b905080828161348f57fe5b04979650505050505050565b6000818260140110156134ea576040805162461bcd60e51b8152602060048201526012602482015271746f416464726573735f6f766572666c6f7760701b604482015290519081900360640190fd5b816014018351101561353b576040805162461bcd60e51b8152602060048201526015602482015274746f416464726573735f6f75744f66426f756e647360581b604482015290519081900360640190fd5b500160200151600160601b900490565b600081826003011015613599576040805162461bcd60e51b8152602060048201526011602482015270746f55696e7432345f6f766572666c6f7760781b604482015290519081900360640190fd5b81600301835110156135e9576040805162461bcd60e51b8152602060048201526014602482015273746f55696e7432345f6f75744f66426f756e647360601b604482015290519081900360640190fd5b50016003015190565b60608182601f01101561363d576040805162461bcd60e51b815260206004820152600e60248201526d736c6963655f6f766572666c6f7760901b604482015290519081900360640190fd5b828284011015613685576040805162461bcd60e51b815260206004820152600e60248201526d736c6963655f6f766572666c6f7760901b604482015290519081900360640190fd5b818301845110156136d1576040805162461bcd60e51b8152602060048201526011602482015270736c6963655f6f75744f66426f756e647360781b604482015290519081900360640190fd5b6060821580156136f0576040519150600082526020820160405261373a565b6040519150601f8416801560200281840101858101878315602002848b0101015b81831015613729578051835260209283019201613711565b5050858452601f01601f1916604052505b50949350505050565b80600281900b811461097557600080fd5b6000806000805b84518110156137d75784818151811061377057fe5b6020026020010151602001516001600160801b031685828151811061379157fe5b60200260200101516000015160020b02830192508481815181106137b157fe5b6020026020010151602001516001600160801b031682019150808060010191505061375b565b508082816137e157fe5b0592506000821280156137fc57508082816137f857fe5b0715155b156118e157505060001901919050565b5160176013199091010490565b600080600080846001600160a01b0316633850c7bd6040518163ffffffff1660e01b815260040160e06040518083038186803b15801561385857600080fd5b505afa15801561386c573d6000803e3d6000fd5b505050506040513d601f19601f8201168201806040525081019061389091906147f2565b50939750919550935050600161ffff84161191506138c290505760405162461bcd60e51b815260040161076090614bee565b600080866001600160a01b031663252c09d7856040518263ffffffff1660e01b81526004016138f19190614daf565b60806040518083038186803b15801561390957600080fd5b505afa15801561391d573d6000803e3d6000fd5b505050506040513d601f19601f8201168201806040525081019061394191906149bc565b50509150915061394f612aa1565b63ffffffff168263ffffffff161461396957849550613a4d565b60008361ffff1660018561ffff168761ffff1601038161398557fe5b06905060008060008a6001600160a01b031663252c09d7856040518263ffffffff1660e01b81526004016139b99190614dbe565b60806040518083038186803b1580156139d157600080fd5b505afa1580156139e5573d6000803e3d6000fd5b505050506040513d601f19601f82011682018060405250810190613a0991906149bc565b9350509250925080613a2d5760405162461bcd60e51b815260040161076090614bd1565b82860363ffffffff811683870360060b81613a4457fe5b059a5050505050505b50505050915091565b60008063ffffffff8316613a96576040805162461bcd60e51b8152602060048201526002602482015261042560f41b604482015290519081900360640190fd5b6040805160028082526060820183526000926020830190803683370190505090508381600081518110613ac557fe5b602002602001019063ffffffff16908163ffffffff1681525050600081600181518110613aee57fe5b63ffffffff90921660209283029190910182015260405163883bdbfd60e01b81526004810182815283516024830152835160009384936001600160a01b038b169363883bdbfd9388939192839260449091019185820191028083838b5b83811015613b63578181015183820152602001613b4b565b505050509050019250505060006040518083038186803b158015613b8657600080fd5b505afa158015613b9a573d6000803e3d6000fd5b505050506040513d6000823e601f3d908101601f191682016040908152811015613bc357600080fd5b8101908080516040519392919084640100000000821115613be357600080fd5b908301906020820185811115613bf857600080fd5b8251866020820283011164010000000082111715613c1557600080fd5b82525081516020918201928201910280838360005b83811015613c42578181015183820152602001613c2a565b5050505090500160405260200180516040519392919084640100000000821115613c6b57600080fd5b908301906020820185811115613c8057600080fd5b8251866020820283011164010000000082111715613c9d57600080fd5b82525081516020918201928201910280838360005b83811015613cca578181015183820152602001613cb2565b5050505090500160405250505091509150600082600081518110613cea57fe5b602002602001015183600181518110613cff57fe5b6020026020010151039050600082600081518110613d1957fe5b602002602001015183600181518110613d2e57fe5b60200260200101510390508763ffffffff168260060b81613d4b57fe5b05965060008260060b128015613d7557508763ffffffff168260060b81613d6e57fe5b0760060b15155b15613d8257600019909601955b63ffffffff88166001600160a01b0302640100000000600160c01b03602083901b166001600160c01b03821681613db557fe5b0496505050505050509250929050565b613dcd613f44565b826001600160a01b0316846001600160a01b03161115613deb579192915b50604080516060810182526001600160a01b03948516815292909316602083015262ffffff169181019190915290565b6000613e278383613e3e565b9050336001600160a01b03821614611ac957600080fd5b600081602001516001600160a01b031682600001516001600160a01b031610613e6657600080fd5b50805160208083015160409384015184516001600160a01b0394851681850152939091168385015262ffffff166060808401919091528351808403820181526080840185528051908301206001600160f81b031960a085015294901b6001600160601b03191660a183015260b58201939093527fe34f199b19b2b4f47f68442619d555527d244f78a3297ea89325f843f87b8b5460d5808301919091528251808303909101815260f5909101909152805191012090565b80820182811015611ac957600080fd5b604080518082019091526000808252602082015290565b604080516060810182526000808252602082018190529181019190915290565b803561097581614ec5565b60008083601f840112613f80578182fd5b5081356001600160401b03811115613f96578182fd5b60208301915083602080830285010111156133d857600080fd5b600082601f830112613fc0578081fd5b81356020613fd5613fd083614e5b565b614e38565b8281528181019085830183850287018401881015613ff1578586fd5b855b858110156140235781356001600160801b0381168114614011578788fd5b84529284019290840190600101613ff3565b5090979650505050505050565b8051801515811461097557600080fd5b600082601f830112614050578081fd5b813561405e613fd082614e78565b818152846020838601011115614072578283fd5b816020850160208301379081016020019190915292915050565b80516001600160701b038116811461097557600080fd5b805161ffff8116811461097557600080fd5b803562ffffff8116811461097557600080fd5b803561097581614ee9565b6000602082840312156140e4578081fd5b81356140ef81614ec5565b9392505050565b60008060408385031215614108578081fd5b823561411381614ec5565b946020939093013593505050565b600080600060608486031215614135578081fd5b833561414081614ec5565b925060208401359150604084013561415781614ec5565b809150509250925092565b600080600080600060a08688031215614179578283fd5b853561418481614ec5565b945060208601359350604086013561419b81614ec5565b92506060860135915060808601356141b281614ec5565b809150509295509295909350565b600080600080608085870312156141d5578182fd5b84356141e081614ec5565b9350602085013592506040850135915060608501356141fe81614ec5565b939692955090935050565b60008060008060008060c08789031215614221578384fd5b863561422c81614ec5565b95506020870135945060408701359350606087013561424a81614efb565b9598949750929560808101359460a0909101359350915050565b60008060208385031215614276578182fd5b82356001600160401b0381111561428b578283fd5b61429785828601613f6f565b90969095509350505050565b600080600080608085870312156142b8578182fd5b84356001600160401b03808211156142ce578384fd5b818701915087601f8301126142e1578384fd5b813560206142f1613fd083614e5b565b82815281810190858301885b85811015614326576143148e8684358b0101614040565b845292840192908401906001016142fd565b5090995050508801359250508082111561433e578384fd5b5061434b87828801613fb0565b93505061435a604086016140b5565b9150614368606086016140c8565b905092959194509250565b600060208284031215614384578081fd5b6140ef82614030565b6000806000604084860312156143a1578081fd5b8335925060208401356001600160401b038111156143bd578182fd5b6143c986828701613f6f565b9497909650939450505050565b6000602082840312156143e7578081fd5b81356001600160401b038111156143fc578182fd5b6131da84828501614040565b60008060006060848603121561441c578081fd5b83356001600160401b03811115614431578182fd5b61443d86828701614040565b93505061444c602085016140b5565b9150604084013561415781614ee9565b60006020828403121561446d578081fd5b81356140ef81614eda565b6000806040838503121561448a578182fd5b505080516020909101519092909150565b600080600080606085870312156144b0578182fd5b843593506020850135925060408501356001600160401b03808211156144d4578384fd5b818701915087601f8301126144e7578384fd5b8135818111156144f5578485fd5b886020828501011115614506578485fd5b95989497505060200194505050565b600060208284031215614526578081fd5b81516001600160401b0381111561453b578182fd5b8201601f8101841361454b578182fd5b8051614559613fd082614e78565b81815285602083850101111561456d578384fd5b610c14826020830160208601614e99565b60006020828403121561458f578081fd5b81356001600160401b03808211156145a5578283fd5b90830190608082860312156145b8578283fd5b6040516080810181811083821117156145cd57fe5b6040528235828111156145de578485fd5b6145ea87828601614040565b825250602083013591506145fd82614ec5565b816020820152604083013560408201526060830135606082015280935050505092915050565b600060e08284031215614634578081fd5b60405160e081018181106001600160401b038211171561465057fe5b60405261465c83613f64565b815261466a60208401613f64565b602082015261467b604084016140b5565b604082015261468c60608401613f64565b60608201526080830135608082015260a083013560a08201526146b160c08401613f64565b60c08201529392505050565b6000602082840312156146ce578081fd5b81356001600160401b038111156146e3578182fd5b8201608081850312156140ef578182fd5b600060e08284031215610769578081fd5b600060a08284031215610769578081fd5b60006101008284031215610769578081fd5b600060208284031215614739578081fd5b81356001600160401b038082111561474f578283fd5b9083019060408286031215614762578283fd5b60405160408101818110838211171561477757fe5b604052823582811115614788578485fd5b61479487828601614040565b825250602083013592506147a783614ec5565b6020810192909252509392505050565b6000806000606084860312156147cb578081fd5b6147d48461408c565b92506147e26020850161408c565b9150604084015161415781614ee9565b600080600080600080600060e0888a03121561480c578485fd5b875161481781614ec5565b602089015190975061482881614eda565b9550614836604089016140a3565b9450614844606089016140a3565b9350614852608089016140a3565b925060a088015161486281614efb565b915061487060c08901614030565b905092959891949750929550565b60006020828403121561488f578081fd5b6140ef826140b5565b6000602082840312156148a9578081fd5b5035919050565b6000602082840312156148c1578081fd5b5051919050565b600080604083850312156148da578182fd5b8235915060208301356148ec81614ec5565b809150509250929050565b6000806000806080858703121561490c578182fd5b84359350602085013561491e81614ec5565b92506040850135915060608501356141fe81614ec5565b600080600060608486031215614949578081fd5b8335925060208401359150604084013561415781614ec5565b600080600080600060808688031215614979578283fd5b853594506020860135935060408601356001600160401b0381111561499c578384fd5b6149a888828901613f6f565b90945092505060608601356141b281614ec5565b600080600080608085870312156149d1578182fd5b84516149dc81614ee9565b8094505060208501518060060b81146149f3578283fd5b6040860151909350614a0481614ec5565b915061436860608601614030565b6001600160a01b03169052565b60008151808452614a37816020860160208601614e99565b601f01601f19169290920160200192915050565b60020b9052565b62ffffff169052565b606093841b6001600160601b0319908116825260e89390931b6001600160e81b0319166014820152921b166017820152602b0190565b6000828483379101908152919050565b60008251614ab3818460208701614e99565b9190910192915050565b6001600160a01b0391909116815260200190565b6001600160a01b0392831681529116602082015260400190565b6001600160a01b0386811682528515156020830152604082018590528316606082015260a060808201819052600090614b2690830184614a1f565b979650505050505050565b6001600160a01b03929092168252602082015260400190565b6000602080830181845280855180835260408601915060408482028701019250838701855b82811015614b9d57603f19888603018452614b8b858351614a1f565b94509285019290850190600101614b6f565b5092979650505050505050565b6000602082526140ef6020830184614a1f565b6020810160058310614bcb57fe5b91905290565b6020808252600390820152624f4e4960e81b604082015260600190565b6020808252600390820152624e454f60e81b604082015260600190565b602080825260129082015271151bdbc81b5d58da081c995c5d595cdd195960721b604082015260600190565b602080825260029082015261151160f21b604082015260600190565b602080825260139082015272151bdbc81b1a5d1d1b19481c9958d95a5d9959606a1b604082015260600190565b600060c082019050825182526020830151602083015260408301516040830152606083015160608301526080830151608083015260a083015160a083015292915050565b600061016082019050614cd8828451614a12565b6020830151614cea6020840182614a12565b506040830151614cfd6040840182614a52565b506060830151614d106060840182614a4b565b506080830151614d236080840182614a4b565b5060a083015160a083015260c083015160c083015260e083015160e083015261010080840151818401525061012080840151614d6182850182614a12565b505061014092830151919092015290565b600060208252825160406020840152614d8e6060840182614a1f565b602094909401516001600160a01b0316604093909301929092525090919050565b61ffff91909116815260200190565b90815260200190565b600085825284602083015260018060a01b0384166040830152608060608301526133716080830184614a1f565b6000808335601e19843603018112614e0a578283fd5b8301803591506001600160401b03821115614e23578283fd5b6020019150368190038213156133d857600080fd5b6040518181016001600160401b0381118282101715614e5357fe5b604052919050565b60006001600160401b03821115614e6e57fe5b5060209081020190565b60006001600160401b03821115614e8b57fe5b50601f01601f191660200190565b60005b83811015614eb4578181015183820152602001614e9c565b83811115610a6c5750506000910152565b6001600160a01b038116811461115857600080fd5b8060020b811461115857600080fd5b63ffffffff8116811461115857600080fd5b60ff8116811461115857600080fdfea264697066735822122041128318a5bd77588813b8c8c84b816447210acc947c306f21e4e1a3dc3cdb9d64736f6c63430007060033",
    "linkReferences": {}
  },
  "methodIdentifiers": {
    "WETH9()": "4aa4a4fc",
    "approveMax(address)": "571ac8b0",
    "approveMaxMinusOne(address)": "cab372ce",
    "approveZeroThenMax(address)": "639d71a9",
    "approveZeroThenMaxMinusOne(address)": "ab3fdd50",
    "callPositionManager(bytes)": "b3a2af13",
    "checkOracleSlippage(bytes,uint24,uint32)": "f25801a7",
    "checkOracleSlippage(bytes[],uint128[],uint24,uint32)": "efdeed8e",
    "exactInput((bytes,address,uint256,uint256))": "b858183f",
    "exactInputSingle((address,address,uint24,address,uint256,uint256,uint160))": "04e45aaf",
    "exactOutput((bytes,address,uint256,uint256))": "09b81346",
    "exactOutputSingle((address,address,uint24,address,uint256,uint256,uint160))": "5023b4df",
    "factory()": "c45a0155",
    "factoryV2()": "68e0d4e1",
    "getApprovalType(address,uint256)": "dee00f35",
    "increaseLiquidity((address,address,uint256,uint256,uint256))": "f100b205",
    "mint((address,address,uint24,int24,int24,uint256,uint256,address))": "11ed56c9",
    "multicall(bytes32,bytes[])": "1f0464d1",
    "multicall(bytes[])": "ac9650d8",
    "multicall(uint256,bytes[])": "5ae401dc",
    "positionManager()": "791b98bc",
    "pull(address,uint256)": "f2d5d56b",
    "refundETH()": "12210e8a",
    "selfPermit(address,uint256,uint256,uint8,bytes32,bytes32)": "f3995c67",
    "selfPermitAllowed(address,uint256,uint256,uint8,bytes32,bytes32)": "4659a494",
    "selfPermitAllowedIfNecessary(address,uint256,uint256,uint8,bytes32,bytes32)": "a4a78f0c",
    "selfPermitIfNecessary(address,uint256,uint256,uint8,bytes32,bytes32)": "c2e3140a",
    "setTime(uint256)": "3beb26c4",
    "swapExactTokensForTokens(uint256,uint256,address[],address)": "472b43f3",
    "swapTokensForExactTokens(uint256,uint256,address[],address)": "42712a67",
    "sweepToken(address,uint256)": "e90a182f",
    "sweepToken(address,uint256,address)": "df2ab5bb",
    "sweepTokenWithFee(address,uint256,address,uint256,address)": "e0e189a0",
    "sweepTokenWithFee(address,uint256,uint256,address)": "3068c554",
    "uniswapV3SwapCallback(int256,int256,bytes)": "fa461e33",
    "unwrapWETH9(uint256)": "49616997",
    "unwrapWETH9(uint256,address)": "49404b7c",
    "unwrapWETH9WithFee(uint256,address,uint256,address)": "9b2c0a37",
    "unwrapWETH9WithFee(uint256,uint256,address)": "d4ef38de",
    "wrapETH(uint256)": "1c58db4f"
  },
  "id": 33
}