{
  "abi": [
    {
      "inputs": [
        {
          "internalType": "address",
          "name": "_factoryV2",
          "type": "address"
        },
        {
          "internalType": "address",
          "name": "factoryV3",
          "type": "address"
        },
        {
          "internalType": "address",
          "name": "_positionManager",
          "type": "address"
        },
        {
          "internalType": "address",
          "name": "_WETH9",
          "type": "address"
        }
      ],
      "stateMutability": "nonpayable",
      "type": "constructor"
    },
    {
      "inputs": [],
      "name": "WETH9",
      "outputs": [
        {
          "internalType": "address",
          "name": "",
          "type": "address"
        }
      ],
      "stateMutability": "view",
      "type": "function"
    },
    {
      "inputs": [
        {
          "internalType": "address",
          "name": "token",
          "type": "address"
        }
      ],
      "name": "approveMax",
      "outputs": [],
      "stateMutability": "payable",
      "type": "function"
    },
    {
      "inputs": [
        {
          "internalType": "address",
          "name": "token",
          "type": "address"
        }
      ],
      "name": "approveMaxMinusOne",
      "outputs": [],
      "stateMutability": "payable",
      "type": "function"
    },
    {
      "inputs": [
        {
          "internalType": "address",
          "name": "token",
          "type": "address"
        }
      ],
      "name": "approveZeroThenMax",
      "outputs": [],
      "stateMutability": "payable",
      "type": "function"
    },
    {
      "inputs": [
        {
          "internalType": "address",
          "name": "token",
          "type": "address"
        }
      ],
      "name": "approveZeroThenMaxMinusOne",
      "outputs": [],
      "stateMutability": "payable",
      "type": "function"
    },
    {
      "inputs": [
        {
          "internalType": "bytes",
          "name": "data",
          "type": "bytes"
        }
      ],
      "name": "callPositionManager",
      "outputs": [
        {
          "internalType": "bytes",
          "name": "result",
          "type": "bytes"
        }
      ],
      "stateMutability": "payable",
      "type": "function"
    },
    {
      "inputs": [
        {
          "internalType": "bytes[]",
          "name": "paths",
          "type": "bytes[]"
        },
        {
          "internalType": "uint128[]",
          "name": "amounts",
          "type": "uint128[]"
        },
        {
          "internalType": "uint24",
          "name": "maximumTickDivergence",
          "type": "uint24"
        },
        {
          "internalType": "uint32",
          "name": "secondsAgo",
          "type": "uint32"
        }
      ],
      "name": "checkOracleSlippage",
      "outputs": [],
      "stateMutability": "view",
      "type": "function"
    },
    {
      "inputs": [
        {
          "internalType": "bytes",
          "name": "path",
          "type": "bytes"
        },
        {
          "internalType": "uint24",
          "name": "maximumTickDivergence",
          "type": "uint24"
        },
        {
          "internalType": "uint32",
          "name": "secondsAgo",
          "type": "uint32"
        }
      ],
      "name": "checkOracleSlippage",
      "outputs": [],
      "stateMutability": "view",
      "type": "function"
    },
    {
      "inputs": [
        {
          "components": [
            {
              "internalType": "bytes",
              "name": "path",
              "type": "bytes"
            },
            {
              "internalType": "address",
              "name": "recipient",
              "type": "address"
            },
            {
              "internalType": "uint256",
              "name": "amountIn",
              "type": "uint256"
            },
            {
              "internalType": "uint256",
              "name": "amountOutMinimum",
              "type": "uint256"
            }
          ],
          "internalType": "struct IV3SwapRouter.ExactInputParams",
          "name": "params",
          "type": "tuple"
        }
      ],
      "name": "exactInput",
      "outputs": [
        {
          "internalType": "uint256",
          "name": "amountOut",
          "type": "uint256"
        }
      ],
      "stateMutability": "payable",
      "type": "function"
    },
    {
      "inputs": [
        {
          "components": [
            {
              "internalType": "address",
              "name": "tokenIn",
              "type": "address"
            },
            {
              "internalType": "address",
              "name": "tokenOut",
              "type": "address"
            },
            {
              "internalType": "uint24",
              "name": "fee",
              "type": "uint24"
            },
            {
              "internalType": "address",
              "name": "recipient",
              "type": "address"
            },
            {
              "internalType": "uint256",
              "name": "amountIn",
              "type": "uint256"
            },
            {
              "internalType": "uint256",
              "name": "amountOutMinimum",
              "type": "uint256"
            },
            {
              "internalType": "uint160",
              "name": "sqrtPriceLimitX96",
              "type": "uint160"
            }
          ],
          "internalType": "struct IV3SwapRouter.ExactInputSingleParams",
          "name": "params",
          "type": "tuple"
        }
      ],
      "name": "exactInputSingle",
      "outputs": [
        {
          "internalType": "uint256",
          "name": "amountOut",
          "type": "uint256"
        }
      ],
      "stateMutability": "payable",
      "type": "function"
    },
    {
      "inputs": [
        {
          "components": [
            {
              "internalType": "bytes",
              "name": "path",
              "type": "bytes"
            },
            {
              "internalType": "address",
              "name": "recipient",
              "type": "address"
            },
            {
              "internalType": "uint256",
              "name": "amountOut",
              "type": "uint256"
            },
            {
              "internalType": "uint256",
              "name": "amountInMaximum",
              "type": "uint256"
            }
          ],
          "internalType": "struct IV3SwapRouter.ExactOutputParams",
          "name": "params",
          "type": "tuple"
        }
      ],
      "name": "exactOutput",
      "outputs": [
        {
          "internalType": "uint256",
          "name": "amountIn",
          "type": "uint256"
        }
      ],
      "stateMutability": "payable",
      "type": "function"
    },
    {
      "inputs": [
        {
          "components": [
            {
              "internalType": "address",
              "name": "tokenIn",
              "type": "address"
            },
            {
              "internalType": "address",
              "name": "tokenOut",
              "type": "address"
            },
            {
              "internalType": "uint24",
              "name": "fee",
              "type": "uint24"
            },
            {
              "internalType": "address",
              "name": "recipient",
              "type": "address"
            },
            {
              "internalType": "uint256",
              "name": "amountOut",
              "type": "uint256"
            },
            {
              "internalType": "uint256",
              "name": "amountInMaximum",
              "type": "uint256"
            },
            {
              "internalType": "uint160",
              "name": "sqrtPriceLimitX96",
              "type": "uint160"
            }
          ],
          "internalType": "struct IV3SwapRouter.ExactOutputSingleParams",
          "name": "params",
          "type": "tuple"
        }
      ],
      "name": "exactOutputSingle",
      "outputs": [
        {
          "internalType": "uint256",
          "name": "amountIn",
          "type": "uint256"
        }
      ],
      "stateMutability": "payable",
      "type": "function"
    },
    {
      "inputs": [],
      "name": "factory",
      "outputs": [
        {
          "internalType": "address",
          "name": "",
          "type": "address"
        }
      ],
      "stateMutability": "view",
      "type": "function"
    },
    {
      "inputs": [],
      "name": "factoryV2",
      "outputs": [
        {
          "internalType": "address",
          "name": "",
          "type": "address"
        }
      ],
      "stateMutability": "view",
      "type": "function"
    },
    {
      "inputs": [
        {
          "internalType": "address",
          "name": "token",
          "type": "address"
        },
        {
          "internalType": "uint256",
          "name": "amount",
          "type": "uint256"
        }
      ],
      "name": "getApprovalType",
      "outputs": [
        {
          "internalType": "enum IApproveAndCall.ApprovalType",
          "name": "",
          "type": "uint8"
        }
      ],
      "stateMutability": "nonpayable",
      "type": "function"
    },
    {
      "inputs": [
        {
          "components": [
            {
              "internalType": "address",
              "name": "token0",
              "type": "address"
            },
            {
              "internalType": "address",
              "name": "token1",
              "type": "address"
            },
            {
              "internalType": "uint256",
              "name": "tokenId",
              "type": "uint256"
            },
            {
              "internalType": "uint256",
              "name": "amount0Min",
              "type": "uint256"
            },
            {
              "internalType": "uint256",
              "name": "amount1Min",
              "type": "uint256"
            }
          ],
          "internalType": "struct IApproveAndCall.IncreaseLiquidityParams",
          "name": "params",
          "type": "tuple"
        }
      ],
      "name": "increaseLiquidity",
      "outputs": [
        {
          "internalType": "bytes",
          "name": "result",
          "type": "bytes"
        }
      ],
      "stateMutability": "payable",
      "type": "function"
    },
    {
      "inputs": [
        {
          "components": [
            {
              "internalType": "address",
              "name": "token0",
              "type": "address"
            },
            {
              "internalType": "address",
              "name": "token1",
              "type": "address"
            },
            {
              "internalType": "uint24",
              "name": "fee",
              "type": "uint24"
            },
            {
              "internalType": "int24",
              "name": "tickLower",
              "type": "int24"
            },
            {
              "internalType": "int24",
              "name": "tickUpper",
              "type": "int24"
            },
            {
              "internalType": "uint256",
              "name": "amount0Min",
              "type": "uint256"
            },
            {
              "internalType": "uint256",
              "name": "amount1Min",
              "type": "uint256"
            },
            {
              "internalType": "address",
              "name": "recipient",
              "type": "address"
            }
          ],
          "internalType": "struct IApproveAndCall.MintParams",
          "name": "params",
          "type": "tuple"
        }
      ],
      "name": "mint",
      "outputs": [
        {
          "internalType": "bytes",
          "name": "result",
          "type": "bytes"
        }
      ],
      "stateMutability": "payable",
      "type": "function"
    },
    {
      "inputs": [
        {
          "internalType": "bytes32",
          "name": "previousBlockhash",
          "type": "bytes32"
        },
        {
          "internalType": "bytes[]",
          "name": "data",
          "type": "bytes[]"
        }
      ],
      "name": "multicall",
      "outputs": [
        {
          "internalType": "bytes[]",
          "name": "",
          "type": "bytes[]"
        }
      ],
      "stateMutability": "payable",
      "type": "function"
    },
    {
      "inputs": [
        {
          "internalType": "uint256",
          "name": "deadline",
          "type": "uint256"
        },
        {
          "internalType": "bytes[]",
          "name": "data",
          "type": "bytes[]"
        }
      ],
      "name": "multicall",
      "outputs": [
        {
          "internalType": "bytes[]",
          "name": "",
          "type": "bytes[]"
        }
      ],
      "stateMutability": "payable",
      "type": "function"
    },
    {
      "inputs": [
        {
          "internalType": "bytes[]",
          "name": "data",
          "type": "bytes[]"
        }
      ],
      "name": "multicall",
      "outputs": [
        {
          "internalType": "bytes[]",
          "name": "results",
          "type": "bytes[]"
        }
      ],
      "stateMutability": "payable",
      "type": "function"
    },
    {
      "inputs": [],
      "name": "positionManager",
      "outputs": [
        {
          "internalType": "address",
          "name": "",
          "type": "address"
        }
      ],
      "stateMutability": "view",
      "type": "function"
    },
    {
      "inputs": [
        {
          "internalType": "address",
          "name": "token",
          "type": "address"
        },
        {
          "internalType": "uint256",
          "name": "value",
          "type": "uint256"
        }
      ],
      "name": "pull",
      "outputs": [],
      "stateMutability": "payable",
      "type": "function"
    },
    {
      "inputs": [],
      "name": "refundETH",
      "outputs": [],
      "stateMutability": "payable",
      "type": "function"
    },
    {
      "inputs": [
        {
          "internalType": "address",
          "name": "token",
          "type": "address"
        },
        {
          "internalType": "uint256",
          "name": "value",
          "type": "uint256"
        },
        {
          "internalType": "uint256",
          "name": "deadline",
          "type": "uint256"
        },
        {
          "internalType": "uint8",
          "name": "v",
          "type": "uint8"
        },
        {
          "internalType": "bytes32",
          "name": "r",
          "type": "bytes32"
        },
        {
          "internalType": "bytes32",
          "name": "s",
          "type": "bytes32"
        }
      ],
      "name": "selfPermit",
      "outputs": [],
      "stateMutability": "payable",
      "type": "function"
    },
    {
      "inputs": [
        {
          "internalType": "address",
          "name": "token",
          "type": "address"
        },
        {
          "internalType": "uint256",
          "name": "nonce",
          "type": "uint256"
        },
        {
          "internalType": "uint256",
          "name": "expiry",
          "type": "uint256"
        },
        {
          "internalType": "uint8",
          "name": "v",
          "type": "uint8"
        },
        {
          "internalType": "bytes32",
          "name": "r",
          "type": "bytes32"
        },
        {
          "internalType": "bytes32",
          "name": "s",
          "type": "bytes32"
        }
      ],
      "name": "selfPermitAllowed",
      "outputs": [],
      "stateMutability": "payable",
      "type": "function"
    },
    {
      "inputs": [
        {
          "internalType": "address",
          "name": "token",
          "type": "address"
        },
        {
          "internalType": "uint256",
          "name": "nonce",
          "type": "uint256"
        },
        {
          "internalType": "uint256",
          "name": "expiry",
          "type": "uint256"
        },
        {
          "internalType": "uint8",
          "name": "v",
          "type": "uint8"
        },
        {
          "internalType": "bytes32",
          "name": "r",
          "type": "bytes32"
        },
        {
          "internalType": "bytes32",
          "name": "s",
          "type": "bytes32"
        }
      ],
      "name": "selfPermitAllowedIfNecessary",
      "outputs": [],
      "stateMutability": "payable",
      "type": "function"
    },
    {
      "inputs": [
        {
          "internalType": "address",
          "name": "token",
          "type": "address"
        },
        {
          "internalType": "uint256",
          "name": "value",
          "type": "uint256"
        },
        {
          "internalType": "uint256",
          "name": "deadline",
          "type": "uint256"
        },
        {
          "internalType": "uint8",
          "name": "v",
          "type": "uint8"
        },
        {
          "internalType": "bytes32",
          "name": "r",
          "type": "bytes32"
        },
        {
          "internalType": "bytes32",
          "name": "s",
          "type": "bytes32"
        }
      ],
      "name": "selfPermitIfNecessary",
      "outputs": [],
      "stateMutability": "payable",
      "type": "function"
    },
    {
      "inputs": [
        {
          "internalType": "uint256",
          "name": "amountIn",
          "type": "uint256"
        },
        {
          "internalType": "uint256",
          "name": "amountOutMin",
          "type": "uint256"
        },
        {
          "internalType": "address[]",
          "name": "path",
          "type": "address[]"
        },
        {
          "internalType": "address",
          "name": "to",
          "type": "address"
        }
      ],
      "name": "swapExactTokensForTokens",
      "outputs": [
        {
          "internalType": "uint256",
          "name": "amountOut",
          "type": "uint256"
        }
      ],
      "stateMutability": "payable",
      "type": "function"
    },
    {
      "inputs": [
        {
          "internalType": "uint256",
          "name": "amountOut",
          "type": "uint256"
        },
        {
          "internalType": "uint256",
          "name": "amountInMax",
          "type": "uint256"
        },
        {
          "internalType": "address[]",
          "name": "path",
          "type": "address[]"
        },
        {
          "internalType": "address",
          "name": "to",
          "type": "address"
        }
      ],
      "name": "swapTokensForExactTokens",
      "outputs": [
        {
          "internalType": "uint256",
          "name": "amountIn",
          "type": "uint256"
        }
      ],
      "stateMutability": "payable",
      "type": "function"
    },
    {
      "inputs": [
        {
          "internalType": "address",
          "name": "token",
          "type": "address"
        },
        {
          "internalType": "uint256",
          "name": "amountMinimum",
          "type": "uint256"
        },
        {
          "internalType": "address",
          "name": "recipient",
          "type": "address"
        }
      ],
      "name": "sweepToken",
      "outputs": [],
      "stateMutability": "payable",
      "type": "function"
    },
    {
      "inputs": [
        {
          "internalType": "address",
          "name": "token",
          "type": "address"
        },
        {
          "internalType": "uint256",
          "name": "amountMinimum",
          "type": "uint256"
        }
      ],
      "name": "sweepToken",
      "outputs": [],
      "stateMutability": "payable",
      "type": "function"
    },
    {
      "inputs": [
        {
          "internalType": "address",
          "name": "token",
          "type": "address"
        },
        {
          "internalType": "uint256",
          "name": "amountMinimum",
          "type": "uint256"
        },
        {
          "internalType": "uint256",
          "name": "feeBips",
          "type": "uint256"
        },
        {
          "internalType": "address",
          "name": "feeRecipient",
          "type": "address"
        }
      ],
      "name": "sweepTokenWithFee",
      "outputs": [],
      "stateMutability": "payable",
      "type": "function"
    },
    {
      "inputs": [
        {
          "internalType": "address",
          "name": "token",
          "type": "address"
        },
        {
          "internalType": "uint256",
          "name": "amountMinimum",
          "type": "uint256"
        },
        {
          "internalType": "address",
          "name": "recipient",
          "type": "address"
        },
        {
          "internalType": "uint256",
          "name": "feeBips",
          "type": "uint256"
        },
        {
          "internalType": "address",
          "name": "feeRecipient",
          "type": "address"
        }
      ],
      "name": "sweepTokenWithFee",
      "outputs": [],
      "stateMutability": "payable",
      "type": "function"
    },
    {
      "inputs": [
        {
          "internalType": "int256",
          "name": "amount0Delta",
          "type": "int256"
        },
        {
          "internalType": "int256",
          "name": "amount1Delta",
          "type": "int256"
        },
        {
          "internalType": "bytes",
          "name": "_data",
          "type": "bytes"
        }
      ],
      "name": "uniswapV3SwapCallback",
      "outputs": [],
      "stateMutability": "nonpayable",
      "type": "function"
    },
    {
      "inputs": [
        {
          "internalType": "uint256",
          "name": "amountMinimum",
          "type": "uint256"
        },
        {
          "internalType": "address",
          "name": "recipient",
          "type": "address"
        }
      ],
      "name": "unwrapWETH9",
      "outputs": [],
      "stateMutability": "payable",
      "type": "function"
    },
    {
      "inputs": [
        {
          "internalType": "uint256",
          "name": "amountMinimum",
          "type": "uint256"
        }
      ],
      "name": "unwrapWETH9",
      "outputs": [],
      "stateMutability": "payable",
      "type": "function"
    },
    {
      "inputs": [
        {
          "internalType": "uint256",
          "name": "amountMinimum",
          "type": "uint256"
        },
        {
          "internalType": "address",
          "name": "recipient",
          "type": "address"
        },
        {
          "internalType": "uint256",
          "name": "feeBips",
          "type": "uint256"
        },
        {
          "internalType": "address",
          "name": "feeRecipient",
          "type": "address"
        }
      ],
      "name": "unwrapWETH9WithFee",
      "outputs": [],
      "stateMutability": "payable",
      "type": "function"
    },
    {
      "inputs": [
        {
          "internalType": "uint256",
          "name": "amountMinimum",
          "type": "uint256"
        },
        {
          "internalType": "uint256",
          "name": "feeBips",
          "type": "uint256"
        },
        {
          "internalType": "address",
          "name": "feeRecipient",
          "type": "address"
        }
      ],
      "name": "unwrapWETH9WithFee",
      "outputs": [],
      "stateMutability": "payable",
      "type": "function"
    },
    {
      "inputs": [
        {
          "internalType": "uint256",
          "name": "value",
          "type": "uint256"
        }
      ],
      "name": "wrapETH",
      "outputs": [],
      "stateMutability": "payable",
      "type": "function"
    },
    {
      "stateMutability": "payable",
      "type": "receive"
    }
  ],
  "bytecode": {
    "object": "0x6101006040526000196000553480156200001857600080fd5b5060405162005092380380620050928339810160408190526200003b9162000087565b6001600160601b0319606094851b811660805291841b821660a05291831b811660c052911b1660e052620000e3565b80516001600160a01b03811681146200008257600080fd5b919050565b600080600080608085870312156200009d578384fd5b620000a8856200006a565b9350620000b8602086016200006a565b9250620000c8604086016200006a565b9150620000d8606086016200006a565b905092959194509250565b60805160601c60a05160601c60c05160601c60e05160601c614f0e620001846000398061024452806109635280610fa85280611093528061112d52806112f552806113e0528061255c52806125a252806126165250806119495280611e6152806131795250806112b55280611697528061198c5280612996525080610a4e5280610b085280610d675280611291528061274152806128a85250614f0e6000f3fe6080604052600436106102345760003560e01c80639b2c0a371161012e578063dee00f35116100ab578063f100b2051161006f578063f100b20514610590578063f25801a7146105a3578063f2d5d56b146105c3578063f3995c67146105d6578063fa461e33146105e9576102a4565b8063dee00f351461050a578063df2ab5bb14610537578063e0e189a01461054a578063e90a182f1461055d578063efdeed8e14610570576102a4565b8063b858183f116100f2578063b858183f146104a9578063c2e3140a146104bc578063c45a0155146104cf578063cab372ce146104e4578063d4ef38de146104f7576102a4565b80639b2c0a371461044a578063a4a78f0c1461045d578063ab3fdd5014610470578063ac9650d814610483578063b3a2af1314610496576102a4565b8063472b43f3116101bc578063571ac8b011610180578063571ac8b0146103e75780635ae401dc146103fa578063639d71a91461040d57806368e0d4e114610420578063791b98bc14610435576102a4565b8063472b43f31461037957806349404b7c1461038c578063496169971461039f5780634aa4a4fc146103b25780635023b4df146103d4576102a4565b80631c58db4f116102035780631c58db4f1461030d5780631f0464d1146103205780633068c5541461034057806342712a67146103535780634659a49414610366576102a4565b806304e45aaf146102a957806309b81346146102d257806311ed56c9146102e557806312210e8a14610305576102a4565b366102a457336001600160a01b037f000000000000000000000000000000000000000000000000000000000000000016146102a2576040805162461bcd60e51b81526020600482015260096024820152684e6f7420574554483960b81b604482015290519081900360640190fd5b005b600080fd5b6102bc6102b73660046145f1565b610609565b6040516102c99190614d8c565b60405180910390f35b6102bc6102e036600461468b565b610744565b6102f86102f33660046146e4565b6107ec565b6040516102c99190614b78565b6102a261094f565b6102a261031b366004614866565b610961565b61033361032e36600461435b565b6109d8565b6040516102c99190614b18565b6102a261034e36600461418e565b610a34565b6102bc610361366004614930565b610a47565b6102a26103743660046141d7565b610bed565b6102bc610387366004614930565b610c87565b6102a261039a366004614896565b610fa4565b6102a26103ad366004614866565b61111e565b3480156103be57600080fd5b506103c761112b565b6040516102c99190614a8b565b6102bc6103e23660046146c2565b61114f565b6102a26103f53660046140a1565b611211565b61033361040836600461435b565b611226565b6102a261041b3660046140a1565b61127b565b34801561042c57600080fd5b506103c761128f565b34801561044157600080fd5b506103c76112b3565b6102a26104583660046148c5565b6112d7565b6102a261046b3660046141d7565b6114a1565b6102a261047e3660046140a1565b611532565b610333610491366004614232565b611552565b6102f86104a43660046143a4565b611691565b6102bc6104b736600461454c565b611742565b6102a26104ca3660046141d7565b6118b8565b3480156104db57600080fd5b506103c7611947565b6102a26104f23660046140a1565b611546565b6102a2610505366004614903565b61196b565b34801561051657600080fd5b5061052a6105253660046140c4565b611977565b6040516102c99190614b8b565b6102a26105453660046140ef565b611a9f565b6102a2610558366004614130565b611b77565b6102a261056b3660046140c4565b611c9e565b34801561057c57600080fd5b506102a261058b366004614271565b611cad565b6102f861059e3660046146d3565b611ce5565b3480156105af57600080fd5b506102a26105be3660046143d6565b611d67565b6102a26105d13660046140c4565b611d9e565b6102a26105e43660046141d7565b611daa565b3480156105f557600080fd5b506102a2610604366004614469565b611e1c565b6000806000836080015114156106a0575081516040516370a0823160e01b81526001916001600160a01b0316906370a082319061064a903090600401614a8b565b60206040518083038186803b15801561066257600080fd5b505afa158015610676573d6000803e3d6000fd5b505050506040513d601f19601f8201168201806040525081019061069a919061487e565b60808401525b61070f836080015184606001518560c001516040518060400160405280886000015189604001518a602001516040516020016106de93929190614a29565b6040516020818303038152906040528152602001866106fd57336106ff565b305b6001600160a01b03169052611f2c565b91508260a0015182101561073e5760405162461bcd60e51b815260040161073590614c21565b60405180910390fd5b50919050565b60006107b86040830180359061075d90602086016140a1565b60408051808201909152600090806107758880614dc2565b8080601f0160208091040260200160405190810160405280939291908181526020018383808284376000920191909152505050908252503360209091015261209c565b505060005460608201358111156107e15760405162461bcd60e51b815260040161073590614bd9565b600019600055919050565b60408051610160810190915260609061094790634418b22b60e11b908061081660208701876140a1565b6001600160a01b0316815260200185602001602081019061083791906140a1565b6001600160a01b03168152602001610855606087016040880161484c565b62ffffff16815260200161086f608087016060880161442a565b60020b815260200161088760a087016080880161442a565b60020b81526020908101906108a7906108a2908801886140a1565b612235565b81526020016108c28660200160208101906108a291906140a1565b815260a0860135602082015260c086013560408201526060016108ec610100870160e088016140a1565b6001600160a01b031681526020016000198152506040516024016109109190614c92565b60408051601f198184030181529190526020810180516001600160e01b03166001600160e01b031990931692909217909152611691565b90505b919050565b471561095f5761095f33476122b4565b565b7f00000000000000000000000000000000000000000000000000000000000000006001600160a01b031663d0e30db0826040518263ffffffff1660e01b81526004016000604051808303818588803b1580156109bc57600080fd5b505af11580156109d0573d6000803e3d6000fd5b505050505050565b60608380600143034014610a1f576040805162461bcd60e51b8152602060048201526009602482015268084d8dec6d6d0c2e6d60bb1b604482015290519081900360640190fd5b610a298484611552565b91505b509392505050565b610a418484338585611b77565b50505050565b6000610aa77f0000000000000000000000000000000000000000000000000000000000000000878686808060200260200160405190810160405280939291908181526020018383602002808284376000920191909152506123a392505050565b600081518110610ab357fe5b6020026020010151905084811115610add5760405162461bcd60e51b815260040161073590614bd9565b610b7684846000818110610aed57fe5b9050602002016020810190610b0291906140a1565b33610b707f000000000000000000000000000000000000000000000000000000000000000088886000818110610b3457fe5b9050602002016020810190610b4991906140a1565b89896001818110610b5657fe5b9050602002016020810190610b6b91906140a1565b61249f565b8461255a565b6001600160a01b03821660011415610b9057339150610ba6565b6001600160a01b03821660021415610ba6573091505b610be48484808060200260200160405190810160405280939291908181526020018383602002808284376000920191909152508692506126ea915050565b95945050505050565b604080516323f2ebc360e21b815233600482015230602482015260448101879052606481018690526001608482015260ff851660a482015260c4810184905260e4810183905290516001600160a01b03881691638fcbaf0c9161010480830192600092919082900301818387803b158015610c6757600080fd5b505af1158015610c7b573d6000803e3d6000fd5b50505050505050505050565b60008086610d30575060018484600081610c9d57fe5b9050602002016020810190610cb291906140a1565b6001600160a01b03166370a08231306040518263ffffffff1660e01b8152600401610cdd9190614a8b565b60206040518083038186803b158015610cf557600080fd5b505afa158015610d09573d6000803e3d6000fd5b505050506040513d601f19601f82011682018060405250810190610d2d919061487e565b96505b610dbb85856000818110610d4057fe5b9050602002016020810190610d5591906140a1565b82610d605733610d62565b305b610db57f000000000000000000000000000000000000000000000000000000000000000089896000818110610d9357fe5b9050602002016020810190610da891906140a1565b8a8a6001818110610b5657fe5b8a61255a565b6001600160a01b03831660011415610dd557339250610deb565b6001600160a01b03831660021415610deb573092505b600085856000198101818110610dfd57fe5b9050602002016020810190610e1291906140a1565b6001600160a01b03166370a08231856040518263ffffffff1660e01b8152600401610e3d9190614a8b565b60206040518083038186803b158015610e5557600080fd5b505afa158015610e69573d6000803e3d6000fd5b505050506040513d601f19601f82011682018060405250810190610e8d919061487e565b9050610ecd8686808060200260200160405190810160405280939291908181526020018383602002808284376000920191909152508892506126ea915050565b610f778187876000198101818110610ee157fe5b9050602002016020810190610ef691906140a1565b6001600160a01b03166370a08231876040518263ffffffff1660e01b8152600401610f219190614a8b565b60206040518083038186803b158015610f3957600080fd5b505afa158015610f4d573d6000803e3d6000fd5b505050506040513d601f19601f82011682018060405250810190610f71919061487e565b9061296d565b925086831015610f995760405162461bcd60e51b815260040161073590614c21565b505095945050505050565b60007f00000000000000000000000000000000000000000000000000000000000000006001600160a01b03166370a08231306040518263ffffffff1660e01b815260040180826001600160a01b0316815260200191505060206040518083038186803b15801561101357600080fd5b505afa158015611027573d6000803e3d6000fd5b505050506040513d602081101561103d57600080fd5b505190508281101561108b576040805162461bcd60e51b8152602060048201526012602482015271496e73756666696369656e7420574554483960701b604482015290519081900360640190fd5b8015611119577f00000000000000000000000000000000000000000000000000000000000000006001600160a01b0316632e1a7d4d826040518263ffffffff1660e01b815260040180828152602001915050600060405180830381600087803b1580156110f757600080fd5b505af115801561110b573d6000803e3d6000fd5b5050505061111982826122b4565b505050565b6111288133610fa4565b50565b7f000000000000000000000000000000000000000000000000000000000000000081565b60006111eb6080830180359061116890606086016140a1565b61117860e0860160c087016140a1565b604051806040016040528087602001602081019061119691906140a1565b6111a660608a0160408b0161484c565b6111b360208b018b6140a1565b6040516020016111c593929190614a29565b6040516020818303038152906040528152602001336001600160a01b031681525061209c565b90508160a001358111156107e15760405162461bcd60e51b815260040161073590614bd9565b61121d8160001961297d565b61112857600080fd5b60608380611232612a71565b1115610a1f576040805162461bcd60e51b8152602060048201526013602482015272151c985b9cd858dd1a5bdb881d1bdbc81bdb19606a1b604482015290519081900360640190fd5b61128681600061297d565b61121157600080fd5b7f000000000000000000000000000000000000000000000000000000000000000081565b7f000000000000000000000000000000000000000000000000000000000000000081565b6000821180156112e8575060648211155b6112f157600080fd5b60007f00000000000000000000000000000000000000000000000000000000000000006001600160a01b03166370a08231306040518263ffffffff1660e01b815260040180826001600160a01b0316815260200191505060206040518083038186803b15801561136057600080fd5b505afa158015611374573d6000803e3d6000fd5b505050506040513d602081101561138a57600080fd5b50519050848110156113d8576040805162461bcd60e51b8152602060048201526012602482015271496e73756666696369656e7420574554483960701b604482015290519081900360640190fd5b801561149a577f00000000000000000000000000000000000000000000000000000000000000006001600160a01b0316632e1a7d4d826040518263ffffffff1660e01b815260040180828152602001915050600060405180830381600087803b15801561144457600080fd5b505af1158015611458573d6000803e3d6000fd5b5050505060006127106114748584612a7590919063ffffffff16565b8161147b57fe5b049050801561148e5761148e83826122b4565b6109d0858284036122b4565b5050505050565b60408051636eb1769f60e11b81523360048201523060248201529051600019916001600160a01b0389169163dd62ed3e91604480820192602092909190829003018186803b1580156114f257600080fd5b505afa158015611506573d6000803e3d6000fd5b505050506040513d602081101561151c57600080fd5b505110156109d0576109d0868686868686610bed565b61153d81600061297d565b61154657600080fd5b61121d8160011961297d565b6060816001600160401b038111801561156a57600080fd5b5060405190808252806020026020018201604052801561159e57816020015b60608152602001906001900390816115895790505b50905060005b8281101561168a57600080308686858181106115bc57fe5b90506020028101906115ce9190614dc2565b6040516115dc929190614a5f565b600060405180830381855af49150503d8060008114611617576040519150601f19603f3d011682016040523d82523d6000602084013e61161c565b606091505b5091509150816116685760448151101561163557600080fd5b6004810190508080602001905181019061164f91906144e3565b60405162461bcd60e51b81526004016107359190614b78565b8084848151811061167557fe5b602090810291909101015250506001016115a4565b5092915050565b606060007f00000000000000000000000000000000000000000000000000000000000000006001600160a01b0316836040516116cd9190614a6f565b6000604051808303816000865af19150503d806000811461170a576040519150601f19603f3d011682016040523d82523d6000602084013e61170f565b606091505b50925090508061073e5760448251101561172857600080fd5b6004820191508180602001905181019061164f91906144e3565b6000806000836040015114156117ed576001905060006117658460000151612a99565b50506040516370a0823160e01b81529091506001600160a01b038216906370a0823190611796903090600401614a8b565b60206040518083038186803b1580156117ae57600080fd5b505afa1580156117c2573d6000803e3d6000fd5b505050506040513d601f19601f820116820180604052508101906117e6919061487e565b6040850152505b6000816117fa57336117fc565b305b90505b600061180e8560000151612aca565b905061185a856040015182611827578660200151611829565b305b600060405180604001604052806118438b60000151612ad2565b8152602001876001600160a01b0316815250611f2c565b6040860152801561187a57845130925061187390612ae1565b8552611887565b846040015193505061188d565b506117ff565b83606001518310156118b15760405162461bcd60e51b815260040161073590614c21565b5050919050565b60408051636eb1769f60e11b8152336004820152306024820152905186916001600160a01b0389169163dd62ed3e91604480820192602092909190829003018186803b15801561190757600080fd5b505afa15801561191b573d6000803e3d6000fd5b505050506040513d602081101561193157600080fd5b505110156109d0576109d0868686868686611daa565b7f000000000000000000000000000000000000000000000000000000000000000081565b611119833384846112d7565b600081836001600160a01b031663dd62ed3e307f00000000000000000000000000000000000000000000000000000000000000006040518363ffffffff1660e01b81526004016119c8929190614a9f565b60206040518083038186803b1580156119e057600080fd5b505afa1580156119f4573d6000803e3d6000fd5b505050506040513d601f19601f82011682018060405250810190611a18919061487e565b10611a2557506000611a99565b611a318360001961297d565b15611a3e57506001611a99565b611a4a8360011961297d565b15611a5757506002611a99565b611a6283600061297d565b611a6b57600080fd5b611a778360001961297d565b15611a8457506003611a99565b611a908360011961297d565b156102a4575060045b92915050565b6000836001600160a01b03166370a08231306040518263ffffffff1660e01b815260040180826001600160a01b0316815260200191505060206040518083038186803b158015611aee57600080fd5b505afa158015611b02573d6000803e3d6000fd5b505050506040513d6020811015611b1857600080fd5b5051905082811015611b66576040805162461bcd60e51b815260206004820152601260248201527124b739bab33334b1b4b2b73a103a37b5b2b760711b604482015290519081900360640190fd5b8015610a4157610a41848383612af8565b600082118015611b88575060648211155b611b9157600080fd5b6000856001600160a01b03166370a08231306040518263ffffffff1660e01b815260040180826001600160a01b0316815260200191505060206040518083038186803b158015611be057600080fd5b505afa158015611bf4573d6000803e3d6000fd5b505050506040513d6020811015611c0a57600080fd5b5051905084811015611c58576040805162461bcd60e51b815260206004820152601260248201527124b739bab33334b1b4b2b73a103a37b5b2b760711b604482015290519081900360640190fd5b80156109d0576000612710611c6d8386612a75565b81611c7457fe5b0490508015611c8857611c88878483612af8565b611c958786838503612af8565b50505050505050565b611ca9828233611a9f565b5050565b600080611cbb868685612c3f565b915091508362ffffff16818303126109d05760405162461bcd60e51b815260040161073590614c05565b606061094763219f5d1760e01b6040518060c0016040528085604001358152602001611d1d8660000160208101906108a291906140a1565b8152602001611d388660200160208101906108a291906140a1565b815260200185606001358152602001856080013581526020016000198152506040516024016109109190614c4e565b600080611d748584612e35565b915091508362ffffff168183031261149a5760405162461bcd60e51b815260040161073590614c05565b611ca98233308461300c565b6040805163d505accf60e01b8152336004820152306024820152604481018790526064810186905260ff8516608482015260a4810184905260c4810183905290516001600160a01b0388169163d505accf9160e480830192600092919082900301818387803b158015610c6757600080fd5b6000841380611e2b5750600083135b611e3457600080fd5b6000611e42828401846146f6565b90506000806000611e568460000151612a99565b925092509250611e887f000000000000000000000000000000000000000000000000000000000000000084848461315c565b5060008060008a13611eaf57846001600160a01b0316846001600160a01b03161089611ec6565b836001600160a01b0316856001600160a01b0316108a5b915091508115611ee557611ee0858760200151338461255a565b610c7b565b8551611ef090612aca565b15611f15578551611f0090612ae1565b8652611f0f813360008961209c565b50610c7b565b80600081905550610c7b848760200151338461255a565b60006001600160a01b03841660011415611f4857339350611f5e565b6001600160a01b03841660021415611f5e573093505b6000806000611f708560000151612a99565b919450925090506001600160a01b0380831690841610600080611f94868686613172565b6001600160a01b031663128acb088b85611fad8f6131b0565b6001600160a01b038e1615611fc2578d611fe8565b87611fe15773fffd8963efd1fc6a506488495d951d5263988d25611fe8565b6401000276a45b8d604051602001611ff99190614d40565b6040516020818303038152906040526040518663ffffffff1660e01b8152600401612028959493929190614ab9565b6040805180830381600087803b15801561204157600080fd5b505af1158015612055573d6000803e3d6000fd5b505050506040513d601f19601f820116820180604052508101906120799190614446565b9150915082612088578161208a565b805b6000039b9a5050505050505050505050565b60006001600160a01b038416600114156120b8573393506120ce565b6001600160a01b038416600214156120ce573093505b60008060006120e08560000151612a99565b919450925090506001600160a01b0380841690831610600080612104858786613172565b6001600160a01b031663128acb088b8561211d8f6131b0565b6000036001600160a01b038e1615612135578d61215b565b876121545773fffd8963efd1fc6a506488495d951d5263988d2561215b565b6401000276a45b8d60405160200161216c9190614d40565b6040516020818303038152906040526040518663ffffffff1660e01b815260040161219b959493929190614ab9565b6040805180830381600087803b1580156121b457600080fd5b505af11580156121c8573d6000803e3d6000fd5b505050506040513d601f19601f820116820180604052508101906121ec9190614446565b91509150600083612201578183600003612207565b82826000035b90985090506001600160a01b038a16612226578b811461222657600080fd5b50505050505050949350505050565b6040516370a0823160e01b81526000906001600160a01b038316906370a0823190612264903090600401614a8b565b60206040518083038186803b15801561227c57600080fd5b505afa158015612290573d6000803e3d6000fd5b505050506040513d601f19601f82011682018060405250810190610947919061487e565b604080516000808252602082019092526001600160a01b0384169083906040518082805190602001908083835b602083106123005780518252601f1990920191602091820191016122e1565b6001836020036101000a03801982511681845116808217855250505050505090500191505060006040518083038185875af1925050503d8060008114612362576040519150601f19603f3d011682016040523d82523d6000602084013e612367565b606091505b5050905080611119576040805162461bcd60e51b815260206004820152600360248201526253544560e81b604482015290519081900360640190fd5b60606002825110156123b457600080fd5b81516001600160401b03811180156123cb57600080fd5b506040519080825280602002602001820160405280156123f5578160200160208202803683370190505b509050828160018351038151811061240957fe5b60209081029190910101528151600019015b8015610a2c576000806124588786600186038151811061243757fe5b602002602001015187868151811061244b57fe5b60200260200101516131c6565b9150915061247a84848151811061246b57fe5b6020026020010151838361328d565b84600185038151811061248957fe5b602090810291909101015250506000190161241b565b60008060006124ae8585613349565b604080516001600160601b0319606094851b811660208084019190915293851b81166034830152825160288184030181526048830184528051908501206001600160f81b031960688401529a90941b9093166069840152607d8301989098527f96e8ac4277198ff8b6f785478aa9a39f403cb768dd02cbee326c3e7da348845f609d808401919091528851808403909101815260bd909201909752805196019590952095945050505050565b7f00000000000000000000000000000000000000000000000000000000000000006001600160a01b0316846001600160a01b031614801561259b5750804710155b156126bd577f00000000000000000000000000000000000000000000000000000000000000006001600160a01b031663d0e30db0826040518263ffffffff1660e01b81526004016000604051808303818588803b1580156125fb57600080fd5b505af115801561260f573d6000803e3d6000fd5b50505050507f00000000000000000000000000000000000000000000000000000000000000006001600160a01b031663a9059cbb83836040518363ffffffff1660e01b815260040180836001600160a01b0316815260200182815260200192505050602060405180830381600087803b15801561268b57600080fd5b505af115801561269f573d6000803e3d6000fd5b505050506040513d60208110156126b557600080fd5b50610a419050565b6001600160a01b0383163014156126de576126d9848383612af8565b610a41565b610a418484848461300c565b60005b60018351038110156111195760008084838151811061270857fe5b602002602001015185846001018151811061271f57fe5b60200260200101519150915060006127378383613349565b50905060006127677f0000000000000000000000000000000000000000000000000000000000000000858561249f565b9050600080600080846001600160a01b0316630902f1ac6040518163ffffffff1660e01b815260040160606040518083038186803b1580156127a857600080fd5b505afa1580156127bc573d6000803e3d6000fd5b505050506040513d601f19601f820116820180604052508101906127e09190614785565b506001600160701b031691506001600160701b03169150600080876001600160a01b03168a6001600160a01b03161461281a57828461281d565b83835b91509150612851828b6001600160a01b03166370a082318a6040518263ffffffff1660e01b8152600401610f219190614a8b565b955061285e8683836133ad565b945050505050600080856001600160a01b0316886001600160a01b0316146128885782600061288c565b6000835b91509150600060028c51038a106128a3578a6128e4565b6128e47f0000000000000000000000000000000000000000000000000000000000000000898e8d600201815181106128d757fe5b602002602001015161249f565b6040805160008152602081019182905263022c0d9f60e01b9091529091506001600160a01b0387169063022c0d9f906129269086908690869060248101614d95565b600060405180830381600087803b15801561294057600080fd5b505af1158015612954573d6000803e3d6000fd5b50506001909b019a506126ed9950505050505050505050565b80820382811115611a9957600080fd5b6000806000846001600160a01b031663095ea7b360e01b7f0000000000000000000000000000000000000000000000000000000000000000866040516024016129c7929190614aff565b60408051601f198184030181529181526020820180516001600160e01b03166001600160e01b0319909416939093179092529051612a059190614a6f565b6000604051808303816000865af19150503d8060008114612a42576040519150601f19603f3d011682016040523d82523d6000602084013e612a47565b606091505b5091509150818015610be4575080511580610be4575080806020019051810190610be49190614341565b4290565b6000821580612a9057505081810281838281612a8d57fe5b04145b611a9957600080fd5b60008080612aa78482613469565b9250612ab4846014613519565b9050612ac1846017613469565b91509193909250565b516042111590565b6060610947826000602b6135c0565b8051606090610947908390601790601619016135c0565b604080516001600160a01b038481166024830152604480830185905283518084039091018152606490920183526020820180516001600160e01b031663a9059cbb60e01b1781529251825160009485949389169392918291908083835b60208310612b745780518252601f199092019160209182019101612b55565b6001836020036101000a0380198251168184511680821785525050505050509050019150506000604051808303816000865af19150503d8060008114612bd6576040519150601f19603f3d011682016040523d82523d6000602084013e612bdb565b606091505b5091509150818015612c09575080511580612c095750808060200190516020811015612c0657600080fd5b50515b61149a576040805162461bcd60e51b815260206004820152600260248201526114d560f21b604482015290519081900360640190fd5b6000808351855114612c5057600080fd5b600085516001600160401b0381118015612c6957600080fd5b50604051908082528060200260200182016040528015612ca357816020015b612c90613efb565b815260200190600190039081612c885790505b509050600086516001600160401b0381118015612cbf57600080fd5b50604051908082528060200260200182016040528015612cf957816020015b612ce6613efb565b815260200190600190039081612cde5790505b50905060005b8751811015612e0e57600080612d288a8481518110612d1a57fe5b602002602001015189612e35565b91509150612d3582613711565b858481518110612d4157fe5b60200260200101516000019060020b908160020b81525050612d6281613711565b848481518110612d6e57fe5b60200260200101516000019060020b908160020b81525050888381518110612d9257fe5b6020026020010151858481518110612da657fe5b6020026020010151602001906001600160801b031690816001600160801b031681525050888381518110612dd657fe5b6020026020010151848481518110612dea57fe5b6020908102919091018101516001600160801b039092169101525050600101612cff565b50612e1882613722565b60020b9350612e2681613722565b60020b92505050935093915050565b600080600080612e44866137da565b90506000805b82811015612fed576000806000612e608b612a99565b9250925092506000612e73848484613172565b905060008063ffffffff8d16612e9c57612e8c836137e7565b600291820b9350900b9050612f31565b612ea6838e613a24565b8160020b91505080925050826001600160a01b0316633850c7bd6040518163ffffffff1660e01b815260040160e06040518083038186803b158015612eea57600080fd5b505afa158015612efe573d6000803e3d6000fd5b505050506040513d601f19601f82011682018060405250810190612f2291906147c0565b50505060029290920b93505050505b60018903871415612f5857846001600160a01b0316866001600160a01b0316109950612f67565b612f618e612ae1565b9d508597505b6000871580612fba5750866001600160a01b0316896001600160a01b031610612fa457866001600160a01b0316866001600160a01b031610612fba565b856001600160a01b0316876001600160a01b0316105b90508015612fcf579b82019b9a81019a612fda565b828d039c50818c039b505b505060019095019450612e4a9350505050565b50826130025760001985029450600019840293505b5050509250929050565b604080516001600160a01b0385811660248301528481166044830152606480830185905283518084039091018152608490920183526020820180516001600160e01b03166323b872dd60e01b178152925182516000948594938a169392918291908083835b602083106130905780518252601f199092019160209182019101613071565b6001836020036101000a0380198251168184511680821785525050505050509050019150506000604051808303816000865af19150503d80600081146130f2576040519150601f19603f3d011682016040523d82523d6000602084013e6130f7565b606091505b5091509150818015613125575080511580613125575080806020019051602081101561312257600080fd5b50515b6109d0576040805162461bcd60e51b815260206004820152600360248201526229aa2360e91b604482015290519081900360640190fd5b6000610be48561316d868686613d93565b613de9565b60006131a87f00000000000000000000000000000000000000000000000000000000000000006131a3868686613d93565b613e0c565b949350505050565b6000600160ff1b82106131c257600080fd5b5090565b60008060006131d58585613349565b5090506000806131e688888861249f565b6001600160a01b0316630902f1ac6040518163ffffffff1660e01b815260040160606040518083038186803b15801561321e57600080fd5b505afa158015613232573d6000803e3d6000fd5b505050506040513d606081101561324857600080fd5b5080516020909101516001600160701b0391821693501690506001600160a01b038781169084161461327b57808261327e565b81815b90999098509650505050505050565b60008084116132e3576040805162461bcd60e51b815260206004820152601a60248201527f494e53554646494349454e545f4f55545055545f414d4f554e54000000000000604482015290519081900360640190fd5b6000831180156132f35750600082115b6132fc57600080fd5b60006133146103e861330e8688612a75565b90612a75565b905060006133286103e561330e868961296d565b905061333f600182848161333857fe5b0490613eeb565b9695505050505050565b600080826001600160a01b0316846001600160a01b0316141561336b57600080fd5b826001600160a01b0316846001600160a01b03161061338b57828461338e565b83835b90925090506001600160a01b0382166133a657600080fd5b9250929050565b6000808411613403576040805162461bcd60e51b815260206004820152601960248201527f494e53554646494349454e545f494e5055545f414d4f554e5400000000000000604482015290519081900360640190fd5b6000831180156134135750600082115b61341c57600080fd5b600061342a856103e5612a75565b905060006134388285612a75565b905060006134528361344c886103e8612a75565b90613eeb565b905080828161345d57fe5b04979650505050505050565b6000818260140110156134b8576040805162461bcd60e51b8152602060048201526012602482015271746f416464726573735f6f766572666c6f7760701b604482015290519081900360640190fd5b8160140183511015613509576040805162461bcd60e51b8152602060048201526015602482015274746f416464726573735f6f75744f66426f756e647360581b604482015290519081900360640190fd5b500160200151600160601b900490565b600081826003011015613567576040805162461bcd60e51b8152602060048201526011602482015270746f55696e7432345f6f766572666c6f7760781b604482015290519081900360640190fd5b81600301835110156135b7576040805162461bcd60e51b8152602060048201526014602482015273746f55696e7432345f6f75744f66426f756e647360601b604482015290519081900360640190fd5b50016003015190565b60608182601f01101561360b576040805162461bcd60e51b815260206004820152600e60248201526d736c6963655f6f766572666c6f7760901b604482015290519081900360640190fd5b828284011015613653576040805162461bcd60e51b815260206004820152600e60248201526d736c6963655f6f766572666c6f7760901b604482015290519081900360640190fd5b8183018451101561369f576040805162461bcd60e51b8152602060048201526011602482015270736c6963655f6f75744f66426f756e647360781b604482015290519081900360640190fd5b6060821580156136be5760405191506000825260208201604052613708565b6040519150601f8416801560200281840101858101878315602002848b0101015b818310156136f75780518352602092830192016136df565b5050858452601f01601f1916604052505b50949350505050565b80600281900b811461094a57600080fd5b6000806000805b84518110156137a55784818151811061373e57fe5b6020026020010151602001516001600160801b031685828151811061375f57fe5b60200260200101516000015160020b028301925084818151811061377f57fe5b6020026020010151602001516001600160801b0316820191508080600101915050613729565b508082816137af57fe5b0592506000821280156137ca57508082816137c657fe5b0715155b156118b157505060001901919050565b5160176013199091010490565b600080600080846001600160a01b0316633850c7bd6040518163ffffffff1660e01b815260040160e06040518083038186803b15801561382657600080fd5b505afa15801561383a573d6000803e3d6000fd5b505050506040513d601f19601f8201168201806040525081019061385e91906147c0565b50939750919550935050600161ffff841611915061389090505760405162461bcd60e51b815260040161073590614bbc565b600080866001600160a01b031663252c09d7856040518263ffffffff1660e01b81526004016138bf9190614d7d565b60806040518083038186803b1580156138d757600080fd5b505afa1580156138eb573d6000803e3d6000fd5b505050506040513d601f19601f8201168201806040525081019061390f919061498a565b50509150915061391d612a71565b63ffffffff168263ffffffff161461393757849550613a1b565b60008361ffff1660018561ffff168761ffff1601038161395357fe5b06905060008060008a6001600160a01b031663252c09d7856040518263ffffffff1660e01b81526004016139879190614d8c565b60806040518083038186803b15801561399f57600080fd5b505afa1580156139b3573d6000803e3d6000fd5b505050506040513d601f19601f820116820180604052508101906139d7919061498a565b93505092509250806139fb5760405162461bcd60e51b815260040161073590614b9f565b82860363ffffffff811683870360060b81613a1257fe5b059a5050505050505b50505050915091565b60008063ffffffff8316613a64576040805162461bcd60e51b8152602060048201526002602482015261042560f41b604482015290519081900360640190fd5b6040805160028082526060820183526000926020830190803683370190505090508381600081518110613a9357fe5b602002602001019063ffffffff16908163ffffffff1681525050600081600181518110613abc57fe5b63ffffffff90921660209283029190910182015260405163883bdbfd60e01b81526004810182815283516024830152835160009384936001600160a01b038b169363883bdbfd9388939192839260449091019185820191028083838b5b83811015613b31578181015183820152602001613b19565b505050509050019250505060006040518083038186803b158015613b5457600080fd5b505afa158015613b68573d6000803e3d6000fd5b505050506040513d6000823e601f3d908101601f191682016040908152811015613b9157600080fd5b8101908080516040519392919084640100000000821115613bb157600080fd5b908301906020820185811115613bc657600080fd5b8251866020820283011164010000000082111715613be357600080fd5b82525081516020918201928201910280838360005b83811015613c10578181015183820152602001613bf8565b5050505090500160405260200180516040519392919084640100000000821115613c3957600080fd5b908301906020820185811115613c4e57600080fd5b8251866020820283011164010000000082111715613c6b57600080fd5b82525081516020918201928201910280838360005b83811015613c98578181015183820152602001613c80565b5050505090500160405250505091509150600082600081518110613cb857fe5b602002602001015183600181518110613ccd57fe5b6020026020010151039050600082600081518110613ce757fe5b602002602001015183600181518110613cfc57fe5b60200260200101510390508763ffffffff168260060b81613d1957fe5b05965060008260060b128015613d4357508763ffffffff168260060b81613d3c57fe5b0760060b15155b15613d5057600019909601955b63ffffffff88166001600160a01b0302640100000000600160c01b03602083901b166001600160c01b03821681613d8357fe5b0496505050505050509250929050565b613d9b613f12565b826001600160a01b0316846001600160a01b03161115613db9579192915b50604080516060810182526001600160a01b03948516815292909316602083015262ffffff169181019190915290565b6000613df58383613e0c565b9050336001600160a01b03821614611a9957600080fd5b600081602001516001600160a01b031682600001516001600160a01b031610613e3457600080fd5b50805160208083015160409384015184516001600160a01b0394851681850152939091168385015262ffffff166060808401919091528351808403820181526080840185528051908301206001600160f81b031960a085015294901b6001600160601b03191660a183015260b58201939093527fe34f199b19b2b4f47f68442619d555527d244f78a3297ea89325f843f87b8b5460d5808301919091528251808303909101815260f5909101909152805191012090565b80820182811015611a9957600080fd5b604080518082019091526000808252602082015290565b604080516060810182526000808252602082018190529181019190915290565b803561094a81614e93565b60008083601f840112613f4e578182fd5b5081356001600160401b03811115613f64578182fd5b60208301915083602080830285010111156133a657600080fd5b600082601f830112613f8e578081fd5b81356020613fa3613f9e83614e29565b614e06565b8281528181019085830183850287018401881015613fbf578586fd5b855b85811015613ff15781356001600160801b0381168114613fdf578788fd5b84529284019290840190600101613fc1565b5090979650505050505050565b8051801515811461094a57600080fd5b600082601f83011261401e578081fd5b813561402c613f9e82614e46565b818152846020838601011115614040578283fd5b816020850160208301379081016020019190915292915050565b80516001600160701b038116811461094a57600080fd5b805161ffff8116811461094a57600080fd5b803562ffffff8116811461094a57600080fd5b803561094a81614eb7565b6000602082840312156140b2578081fd5b81356140bd81614e93565b9392505050565b600080604083850312156140d6578081fd5b82356140e181614e93565b946020939093013593505050565b600080600060608486031215614103578081fd5b833561410e81614e93565b925060208401359150604084013561412581614e93565b809150509250925092565b600080600080600060a08688031215614147578283fd5b853561415281614e93565b945060208601359350604086013561416981614e93565b925060608601359150608086013561418081614e93565b809150509295509295909350565b600080600080608085870312156141a3578182fd5b84356141ae81614e93565b9350602085013592506040850135915060608501356141cc81614e93565b939692955090935050565b60008060008060008060c087890312156141ef578384fd5b86356141fa81614e93565b95506020870135945060408701359350606087013561421881614ec9565b9598949750929560808101359460a0909101359350915050565b60008060208385031215614244578182fd5b82356001600160401b03811115614259578283fd5b61426585828601613f3d565b90969095509350505050565b60008060008060808587031215614286578182fd5b84356001600160401b038082111561429c578384fd5b818701915087601f8301126142af578384fd5b813560206142bf613f9e83614e29565b82815281810190858301885b858110156142f4576142e28e8684358b010161400e565b845292840192908401906001016142cb565b5090995050508801359250508082111561430c578384fd5b5061431987828801613f7e565b93505061432860408601614083565b915061433660608601614096565b905092959194509250565b600060208284031215614352578081fd5b6140bd82613ffe565b60008060006040848603121561436f578081fd5b8335925060208401356001600160401b0381111561438b578182fd5b61439786828701613f3d565b9497909650939450505050565b6000602082840312156143b5578081fd5b81356001600160401b038111156143ca578182fd5b6131a88482850161400e565b6000806000606084860312156143ea578081fd5b83356001600160401b038111156143ff578182fd5b61440b8682870161400e565b93505061441a60208501614083565b9150604084013561412581614eb7565b60006020828403121561443b578081fd5b81356140bd81614ea8565b60008060408385031215614458578182fd5b505080516020909101519092909150565b6000806000806060858703121561447e578182fd5b843593506020850135925060408501356001600160401b03808211156144a2578384fd5b818701915087601f8301126144b5578384fd5b8135818111156144c3578485fd5b8860208285010111156144d4578485fd5b95989497505060200194505050565b6000602082840312156144f4578081fd5b81516001600160401b03811115614509578182fd5b8201601f81018413614519578182fd5b8051614527613f9e82614e46565b81815285602083850101111561453b578384fd5b610be4826020830160208601614e67565b60006020828403121561455d578081fd5b81356001600160401b0380821115614573578283fd5b9083019060808286031215614586578283fd5b60405160808101818110838211171561459b57fe5b6040528235828111156145ac578485fd5b6145b88782860161400e565b825250602083013591506145cb82614e93565b816020820152604083013560408201526060830135606082015280935050505092915050565b600060e08284031215614602578081fd5b60405160e081018181106001600160401b038211171561461e57fe5b60405261462a83613f32565b815261463860208401613f32565b602082015261464960408401614083565b604082015261465a60608401613f32565b60608201526080830135608082015260a083013560a082015261467f60c08401613f32565b60c08201529392505050565b60006020828403121561469c578081fd5b81356001600160401b038111156146b1578182fd5b8201608081850312156140bd578182fd5b600060e0828403121561073e578081fd5b600060a0828403121561073e578081fd5b6000610100828403121561073e578081fd5b600060208284031215614707578081fd5b81356001600160401b038082111561471d578283fd5b9083019060408286031215614730578283fd5b60405160408101818110838211171561474557fe5b604052823582811115614756578485fd5b6147628782860161400e565b8252506020830135925061477583614e93565b6020810192909252509392505050565b600080600060608486031215614799578081fd5b6147a28461405a565b92506147b06020850161405a565b9150604084015161412581614eb7565b600080600080600080600060e0888a0312156147da578485fd5b87516147e581614e93565b60208901519097506147f681614ea8565b955061480460408901614071565b945061481260608901614071565b935061482060808901614071565b925060a088015161483081614ec9565b915061483e60c08901613ffe565b905092959891949750929550565b60006020828403121561485d578081fd5b6140bd82614083565b600060208284031215614877578081fd5b5035919050565b60006020828403121561488f578081fd5b5051919050565b600080604083850312156148a8578182fd5b8235915060208301356148ba81614e93565b809150509250929050565b600080600080608085870312156148da578182fd5b8435935060208501356148ec81614e93565b92506040850135915060608501356141cc81614e93565b600080600060608486031215614917578081fd5b8335925060208401359150604084013561412581614e93565b600080600080600060808688031215614947578283fd5b853594506020860135935060408601356001600160401b0381111561496a578384fd5b61497688828901613f3d565b909450925050606086013561418081614e93565b6000806000806080858703121561499f578182fd5b84516149aa81614eb7565b8094505060208501518060060b81146149c1578283fd5b60408601519093506149d281614e93565b915061433660608601613ffe565b6001600160a01b03169052565b60008151808452614a05816020860160208601614e67565b601f01601f19169290920160200192915050565b60020b9052565b62ffffff169052565b606093841b6001600160601b0319908116825260e89390931b6001600160e81b0319166014820152921b166017820152602b0190565b6000828483379101908152919050565b60008251614a81818460208701614e67565b9190910192915050565b6001600160a01b0391909116815260200190565b6001600160a01b0392831681529116602082015260400190565b6001600160a01b0386811682528515156020830152604082018590528316606082015260a060808201819052600090614af4908301846149ed565b979650505050505050565b6001600160a01b03929092168252602082015260400190565b6000602080830181845280855180835260408601915060408482028701019250838701855b82811015614b6b57603f19888603018452614b598583516149ed565b94509285019290850190600101614b3d565b5092979650505050505050565b6000602082526140bd60208301846149ed565b6020810160058310614b9957fe5b91905290565b6020808252600390820152624f4e4960e81b604082015260600190565b6020808252600390820152624e454f60e81b604082015260600190565b602080825260129082015271151bdbc81b5d58da081c995c5d595cdd195960721b604082015260600190565b602080825260029082015261151160f21b604082015260600190565b602080825260139082015272151bdbc81b1a5d1d1b19481c9958d95a5d9959606a1b604082015260600190565b600060c082019050825182526020830151602083015260408301516040830152606083015160608301526080830151608083015260a083015160a083015292915050565b600061016082019050614ca68284516149e0565b6020830151614cb860208401826149e0565b506040830151614ccb6040840182614a20565b506060830151614cde6060840182614a19565b506080830151614cf16080840182614a19565b5060a083015160a083015260c083015160c083015260e083015160e083015261010080840151818401525061012080840151614d2f828501826149e0565b505061014092830151919092015290565b600060208252825160406020840152614d5c60608401826149ed565b602094909401516001600160a01b0316604093909301929092525090919050565b61ffff91909116815260200190565b90815260200190565b600085825284602083015260018060a01b03841660408301526080606083015261333f60808301846149ed565b6000808335601e19843603018112614dd8578283fd5b8301803591506001600160401b03821115614df1578283fd5b6020019150368190038213156133a657600080fd5b6040518181016001600160401b0381118282101715614e2157fe5b604052919050565b60006001600160401b03821115614e3c57fe5b5060209081020190565b60006001600160401b03821115614e5957fe5b50601f01601f191660200190565b60005b83811015614e82578181015183820152602001614e6a565b83811115610a415750506000910152565b6001600160a01b038116811461112857600080fd5b8060020b811461112857600080fd5b63ffffffff8116811461112857600080fd5b60ff8116811461112857600080fdfea26469706673582212201f69657fcd06f9e1bf6b83dbbe637c3718102fe73bbffd42d53bc23f6dcd52af64736f6c63430007060033",
    "linkReferences": {}
  },
  "methodIdentifiers": {
    "WETH9()": "4aa4a4fc",
    "approveMax(address)": "571ac8b0",
    "approveMaxMinusOne(address)": "cab372ce",
    "approveZeroThenMax(address)": "639d71a9",
    "approveZeroThenMaxMinusOne(address)": "ab3fdd50",
    "callPositionManager(bytes)": "b3a2af13",
    "checkOracleSlippage(bytes,uint24,uint32)": "f25801a7",
    "checkOracleSlippage(bytes[],uint128[],uint24,uint32)": "efdeed8e",
    "exactInput((bytes,address,uint256,uint256))": "b858183f",
    "exactInputSingle((address,address,uint24,address,uint256,uint256,uint160))": "04e45aaf",
    "exactOutput((bytes,address,uint256,uint256))": "09b81346",
    "exactOutputSingle((address,address,uint24,address,uint256,uint256,uint160))": "5023b4df",
    "factory()": "c45a0155",
    "factoryV2()": "68e0d4e1",
    "getApprovalType(address,uint256)": "dee00f35",
    "increaseLiquidity((address,address,uint256,uint256,uint256))": "f100b205",
    "mint((address,address,uint24,int24,int24,uint256,uint256,address))": "11ed56c9",
    "multicall(bytes32,bytes[])": "1f0464d1",
    "multicall(bytes[])": "ac9650d8",
    "multicall(uint256,bytes[])": "5ae401dc",
    "positionManager()": "791b98bc",
    "pull(address,uint256)": "f2d5d56b",
    "refundETH()": "12210e8a",
    "selfPermit(address,uint256,uint256,uint8,bytes32,bytes32)": "f3995c67",
    "selfPermitAllowed(address,uint256,uint256,uint8,bytes32,bytes32)": "4659a494",
    "selfPermitAllowedIfNecessary(address,uint256,uint256,uint8,bytes32,bytes32)": "a4a78f0c",
    "selfPermitIfNecessary(address,uint256,uint256,uint8,bytes32,bytes32)": "c2e3140a",
    "swapExactTokensForTokens(uint256,uint256,address[],address)": "472b43f3",
    "swapTokensForExactTokens(uint256,uint256,address[],address)": "42712a67",
    "sweepToken(address,uint256)": "e90a182f",
    "sweepToken(address,uint256,address)": "df2ab5bb",
    "sweepTokenWithFee(address,uint256,address,uint256,address)": "e0e189a0",
    "sweepTokenWithFee(address,uint256,uint256,address)": "3068c554",
    "uniswapV3SwapCallback(int256,int256,bytes)": "fa461e33",
    "unwrapWETH9(uint256)": "49616997",
    "unwrapWETH9(uint256,address)": "49404b7c",
    "unwrapWETH9WithFee(uint256,address,uint256,address)": "9b2c0a37",
    "unwrapWETH9WithFee(uint256,uint256,address)": "d4ef38de",
    "wrapETH(uint256)": "1c58db4f"
  },
  "id": 0
}